{"contracts/TokenA.sol":{"TokenA":{"abi":[{"inputs":[{"internalType":"contract IERC20","name":"_asset","type":"address"}],"stateMutability":"nonpayable","type":"constructor"},{"anonymous":false,"inputs":[{"indexed":true,"internalType":"address","name":"owner","type":"address"},{"indexed":true,"internalType":"address","name":"spender","type":"address"},{"indexed":false,"internalType":"uint256","name":"value","type":"uint256"}],"name":"Approval","type":"event"},{"anonymous":false,"inputs":[{"indexed":true,"internalType":"address","name":"sender","type":"address"},{"indexed":true,"internalType":"address","name":"owner","type":"address"},{"indexed":false,"internalType":"uint256","name":"assets","type":"uint256"},{"indexed":false,"internalType":"uint256","name":"shares","type":"uint256"}],"name":"Deposit","type":"event"},{"anonymous":false,"inputs":[{"indexed":true,"internalType":"address","name":"from","type":"address"},{"indexed":true,"internalType":"address","name":"to","type":"address"},{"indexed":false,"internalType":"uint256","name":"value","type":"uint256"}],"name":"Transfer","type":"event"},{"anonymous":false,"inputs":[{"indexed":true,"internalType":"address","name":"sender","type":"address"},{"indexed":true,"internalType":"address","name":"receiver","type":"address"},{"indexed":true,"internalType":"address","name":"owner","type":"address"},{"indexed":false,"internalType":"uint256","name":"assets","type":"uint256"},{"indexed":false,"internalType":"uint256","name":"shares","type":"uint256"}],"name":"Withdraw","type":"event"},{"inputs":[{"internalType":"address","name":"owner","type":"address"},{"internalType":"address","name":"spender","type":"address"}],"name":"allowance","outputs":[{"internalType":"uint256","name":"","type":"uint256"}],"stateMutability":"view","type":"function"},{"inputs":[{"internalType":"address","name":"spender","type":"address"},{"internalType":"uint256","name":"amount","type":"uint256"}],"name":"approve","outputs":[{"internalType":"bool","name":"","type":"bool"}],"stateMutability":"nonpayable","type":"function"},{"inputs":[],"name":"asset","outputs":[{"internalType":"address","name":"","type":"address"}],"stateMutability":"view","type":"function"},{"inputs":[{"internalType":"address","name":"account","type":"address"}],"name":"balanceOf","outputs":[{"internalType":"uint256","name":"","type":"uint256"}],"stateMutability":"view","type":"function"},{"inputs":[{"internalType":"uint256","name":"amount","type":"uint256"}],"name":"burn","outputs":[],"stateMutability":"nonpayable","type":"function"},{"inputs":[{"internalType":"uint256","name":"shares","type":"uint256"}],"name":"convertToAssets","outputs":[{"internalType":"uint256","name":"","type":"uint256"}],"stateMutability":"view","type":"function"},{"inputs":[{"internalType":"uint256","name":"assets","type":"uint256"}],"name":"convertToShares","outputs":[{"internalType":"uint256","name":"","type":"uint256"}],"stateMutability":"view","type":"function"},{"inputs":[],"name":"decimals","outputs":[{"internalType":"uint8","name":"","type":"uint8"}],"stateMutability":"view","type":"function"},{"inputs":[{"internalType":"address","name":"spender","type":"address"},{"internalType":"uint256","name":"subtractedValue","type":"uint256"}],"name":"decreaseAllowance","outputs":[{"internalType":"bool","name":"","type":"bool"}],"stateMutability":"nonpayable","type":"function"},{"inputs":[{"internalType":"uint256","name":"assets","type":"uint256"},{"internalType":"address","name":"receiver","type":"address"}],"name":"deposit","outputs":[{"internalType":"uint256","name":"","type":"uint256"}],"stateMutability":"nonpayable","type":"function"},{"inputs":[{"internalType":"address","name":"spender","type":"address"},{"internalType":"uint256","name":"addedValue","type":"uint256"}],"name":"increaseAllowance","outputs":[{"internalType":"bool","name":"","type":"bool"}],"stateMutability":"nonpayable","type":"function"},{"inputs":[{"internalType":"address","name":"","type":"address"}],"name":"maxDeposit","outputs":[{"internalType":"uint256","name":"","type":"uint256"}],"stateMutability":"view","type":"function"},{"inputs":[{"internalType":"address","name":"","type":"address"}],"name":"maxMint","outputs":[{"internalType":"uint256","name":"","type":"uint256"}],"stateMutability":"view","type":"function"},{"inputs":[{"internalType":"address","name":"owner","type":"address"}],"name":"maxRedeem","outputs":[{"internalType":"uint256","name":"","type":"uint256"}],"stateMutability":"view","type":"function"},{"inputs":[{"internalType":"address","name":"owner","type":"address"}],"name":"maxWithdraw","outputs":[{"internalType":"uint256","name":"","type":"uint256"}],"stateMutability":"view","type":"function"},{"inputs":[{"internalType":"address","name":"to","type":"address"},{"internalType":"uint256","name":"amount","type":"uint256"}],"name":"mint","outputs":[],"stateMutability":"nonpayable","type":"function"},{"inputs":[{"internalType":"uint256","name":"shares","type":"uint256"},{"internalType":"address","name":"receiver","type":"address"}],"name":"mint","outputs":[{"internalType":"uint256","name":"","type":"uint256"}],"stateMutability":"nonpayable","type":"function"},{"inputs":[],"name":"name","outputs":[{"internalType":"string","name":"","type":"string"}],"stateMutability":"view","type":"function"},{"inputs":[{"internalType":"uint256","name":"assets","type":"uint256"}],"name":"previewDeposit","outputs":[{"internalType":"uint256","name":"","type":"uint256"}],"stateMutability":"view","type":"function"},{"inputs":[{"internalType":"uint256","name":"shares","type":"uint256"}],"name":"previewMint","outputs":[{"internalType":"uint256","name":"","type":"uint256"}],"stateMutability":"view","type":"function"},{"inputs":[{"internalType":"uint256","name":"shares","type":"uint256"}],"name":"previewRedeem","outputs":[{"internalType":"uint256","name":"","type":"uint256"}],"stateMutability":"view","type":"function"},{"inputs":[{"internalType":"uint256","name":"assets","type":"uint256"}],"name":"previewWithdraw","outputs":[{"internalType":"uint256","name":"","type":"uint256"}],"stateMutability":"view","type":"function"},{"inputs":[{"internalType":"uint256","name":"shares","type":"uint256"},{"internalType":"address","name":"receiver","type":"address"},{"internalType":"address","name":"owner","type":"address"}],"name":"redeem","outputs":[{"internalType":"uint256","name":"","type":"uint256"}],"stateMutability":"nonpayable","type":"function"},{"inputs":[],"name":"symbol","outputs":[{"internalType":"string","name":"","type":"string"}],"stateMutability":"view","type":"function"},{"inputs":[],"name":"totalAssets","outputs":[{"internalType":"uint256","name":"","type":"uint256"}],"stateMutability":"view","type":"function"},{"inputs":[],"name":"totalSupply","outputs":[{"internalType":"uint256","name":"","type":"uint256"}],"stateMutability":"view","type":"function"},{"inputs":[{"internalType":"address","name":"to","type":"address"},{"internalType":"uint256","name":"amount","type":"uint256"}],"name":"transfer","outputs":[{"internalType":"bool","name":"","type":"bool"}],"stateMutability":"nonpayable","type":"function"},{"inputs":[{"internalType":"address","name":"from","type":"address"},{"internalType":"address","name":"to","type":"address"},{"internalType":"uint256","name":"amount","type":"uint256"}],"name":"transferFrom","outputs":[{"internalType":"bool","name":"","type":"bool"}],"stateMutability":"nonpayable","type":"function"},{"inputs":[{"internalType":"uint256","name":"assets","type":"uint256"},{"internalType":"address","name":"receiver","type":"address"},{"internalType":"address","name":"owner","type":"address"}],"name":"withdraw","outputs":[{"internalType":"uint256","name":"","type":"uint256"}],"stateMutability":"nonpayable","type":"function"}],"evm":{"bytecode":{"linkReferences":{},"object":"60c08060405234620003895780620019828038038091620000218285620003aa565b8339602092839181010312620003895751906001600160a01b0382168203620003895760405162000052816200038e565b600c81526b26bcab30bab63a2a37b5b2b760a11b8282015260405162000078816200038e565b60038082526213559560ea1b8483015282516001600160401b039283821162000289578254916001958684811c941680156200037e575b8885101462000368578190601f9485811162000312575b508890858311600114620002ab576000926200029f575b505060001982861b1c191690861b1783555b8051938411620002895760049586548681811c911680156200027e575b8282101462000269578381116200021e575b5080928511600114620001b05750938394918492600095620001a4575b50501b92600019911b1c19161790555b6200015681620003ce565b90156200019b575b60a0526080526040516114d79081620004ab823960805181818161068e01528181610d6101528181610f020152611072015260a051816106d30152f35b5060126200015e565b0151935038806200013b565b92919084601f1981168860005285600020956000905b89838310620002035750505010620001e8575b50505050811b0190556200014b565b01519060f884600019921b161c1916905538808080620001d9565b858701518955909701969485019488935090810190620001c6565b87600052816000208480880160051c8201928489106200025f575b0160051c019087905b828110620002525750506200011e565b6000815501879062000242565b9250819262000239565b602288634e487b7160e01b6000525260246000fd5b90607f16906200010c565b634e487b7160e01b600052604160045260246000fd5b015190503880620000dd565b90889350601f19831691876000528a6000209260005b8c828210620002fb5750508411620002e2575b505050811b018355620000ef565b015160001983881b60f8161c19169055388080620002d4565b8385015186558c97909501949384019301620002c1565b90915085600052886000208580850160051c8201928b86106200035e575b918a91869594930160051c01915b8281106200034e575050620000c6565b600081558594508a91016200033e565b9250819262000330565b634e487b7160e01b600052602260045260246000fd5b93607f1693620000af565b600080fd5b604081019081106001600160401b038211176200028957604052565b601f909101601f19168101906001600160401b038211908210176200028957604052565b906040516020908181019063313ce56760e01b825260048152620003f2816200038e565b5160009485928392916001600160a01b03165afa3d15620004a1573d906001600160401b0382116200048d576040519162000437601f8201601f1916850184620003aa565b82523d858484013e5b8062000481575b62000453575b50508190565b81818051810103126200047d57015160ff8111156200047357806200044d565b6001925060ff1690565b8380fd5b50818151101562000447565b634e487b7160e01b85526041600452602485fd5b6060906200044056fe6040608081526004908136101561001557600080fd5b600090813560e01c92836301e1d114146108ae57836306fdde03146107bb57836307a2d13a146105e1578363095ea7b3146107925783630a28a4771461077357836318160ddd1461075557836323b872dd14610719578363313ce567146106bd57836338d52e0f1461067a578363395093511461062b578363402d267d1461022c57836340c10f191461060757836342966c68146105e65783634cdad506146105e15783636e553f65146105ae57836370a082311461058e57836394bf804d1461055757836395d89b4114610454578363a457c2d7146103b1578363a9059cbb14610381578363b3d7f6b914610362578363b460af94146102c9578363ba0876521461023157508263c63d75b61461022c578263c6e6f59214610164578263ce96cb77146101f5578263d905777e146101b4578263dd62ed3e1461016957505063ef8b30f71461016457600080fd5b6109c5565b346101b057806003193601126101b0578060209261018561093e565b61018d610954565b6001600160a01b0391821683526001865283832091168252845220549051908152f35b5080fd5b346101b05760203660031901126101b0576020906101ee6101d361093e565b6001600160a01b031660009081526020819052604090205490565b9051908152f35b346101b05760203660031901126101b0576020916101ee9082906001600160a01b0361021f61093e565b1681528085522054610e5b565b61096a565b82346102c657829061024236610990565b6001600160a01b03811684526020849052939092205492939092831161028357508161027d9161027460209694610e5b565b94859133610fe2565b51908152f35b606490602086519162461bcd60e51b8352820152601d60248201527f455243343632363a2072656465656d206d6f7265207468616e206d61780000006044820152fd5b80fd5b8290346101b05790826102fe926102df36610990565b6001600160a01b03811686526020869052939094205492949092610e5b565b821161031f5750602093918161031661027d93610dd7565b94859233610fe2565b606490602086519162461bcd60e51b8352820152601f60248201527f455243343632363a207769746864726177206d6f7265207468616e206d6178006044820152fd5b91346102c65760203660031901126102c657506101ee60209235610e30565b50346101b057806003193601126101b0576020906103aa6103a061093e565b6024359033610a3e565b5160018152f35b82346102c657826003193601126102c6576103ca61093e565b918360243592338152600160205281812060018060a01b0386168252602052205490828210610403576020856103aa8585038733610bac565b608490602086519162461bcd60e51b8352820152602560248201527f45524332303a2064656372656173656420616c6c6f77616e63652062656c6f77604482015264207a65726f60d81b6064820152fd5b9250346101b057816003193601126101b057805191809380549160019083821c9282851694851561054d575b602095868610811461053a5785895290811561051657506001146104be575b6104ba87876104b0828c03836109e3565b51918291826108ca565b0390f35b81529295507f8a35acfbc15ff81a39ae7d344fd709f28e8600b4aa8c65c6b64bfe7fe36bd19b5b82841061050357505050826104ba946104b09282010194388061049f565b80548685018801529286019281016104e5565b60ff19168887015250505050151560051b83010192506104b0826104ba388061049f565b634e487b7160e01b845260228352602484fd5b93607f1693610480565b3461058a578160031936011261058a5760209250359061027d610578610954565b9261058281610e30565b809433610e86565b8280fd5b50346101b05760203660031901126101b0576020906101ee6101d361093e565b3461058a578160031936011261058a5760209250359061027d6105cf610954565b6105d884610e05565b93849133610e86565b610913565b9050346101b05760203660031901126101b0576106049035336110b4565b80f35b50346101b0573660031901126102c65761060461062261093e565b60243590610f3f565b50346101b057806003193601126101b0576103aa60209261067361064d61093e565b338352600186528483206001600160a01b03821684528652918490205460243590610a1b565b9033610bac565b50346101b057816003193601126101b057517f00000000000000000000000000000000000000000000000000000000000000006001600160a01b03168152602090f35b9250346101b057816003193601126101b05760ff7f0000000000000000000000000000000000000000000000000000000000000000169160ff8311610706576020838351908152f35b634e487b7160e01b815260118452602490fd5b50346101b05760603660031901126101b0576020906103aa61073961093e565b610741610954565b60443591610750833383610cae565b610a3e565b50346101b057816003193601126101b0576020906002549051908152f35b91346102c65760203660031901126102c657506101ee60209235610dd7565b50346101b057806003193601126101b0576020906103aa6107b161093e565b6024359033610bac565b903461058a578260031936011261058a57805191836003549060019082821c9282811680156108a4575b6020958686108214610891575084885290811561086f5750600114610816575b6104ba86866104b0828b03836109e3565b929550600383527fc2575a0e9e593c00f959f8c92f12db2869c3395a3b0502d05e2516446f71f85b5b82841061085c57505050826104ba946104b0928201019486610805565b805486850188015292860192810161083f565b60ff191687860152505050151560051b83010192506104b0826104ba86610805565b634e487b7160e01b845260229052602483fd5b93607f16936107e5565b50346101b057816003193601126101b0576020906101ee610d46565b6020808252825181830181905290939260005b8281106108ff57505060409293506000838284010152601f8019910116010190565b8181018601518482016040015285016108dd565b34610939576020366003190112610939576020610931600435610e5b565b604051908152f35b600080fd5b600435906001600160a01b038216820361093957565b602435906001600160a01b038216820361093957565b346109395760203660031901126109395761098361093e565b5060206040516000198152f35b606090600319011261093957600435906001600160a01b03906024358281168103610939579160443590811681036109395790565b34610939576020366003190112610939576020610931600435610e05565b90601f8019910116810190811067ffffffffffffffff821117610a0557604052565b634e487b7160e01b600052604160045260246000fd5b91908201809211610a2857565b634e487b7160e01b600052601160045260246000fd5b6001600160a01b03908116918215610b595716918215610b0857600082815280602052604081205491808310610ab457604082827fddf252ad1be2c89b69c2b068fc378daa952ba7f163c4a11628f55a4df523b3ef958760209652828652038282205586815220818154019055604051908152a3565b60405162461bcd60e51b815260206004820152602660248201527f45524332303a207472616e7366657220616d6f756e7420657863656564732062604482015265616c616e636560d01b6064820152608490fd5b60405162461bcd60e51b815260206004820152602360248201527f45524332303a207472616e7366657220746f20746865207a65726f206164647260448201526265737360e81b6064820152608490fd5b60405162461bcd60e51b815260206004820152602560248201527f45524332303a207472616e736665722066726f6d20746865207a65726f206164604482015264647265737360d81b6064820152608490fd5b6001600160a01b03908116918215610c5d5716918215610c0d5760207f8c5be1e5ebec7d5bd14f71427d1e84f3dd0314c0f7b2291e5b200ac8c7c3b925918360005260018252604060002085600052825280604060002055604051908152a3565b60405162461bcd60e51b815260206004820152602260248201527f45524332303a20617070726f766520746f20746865207a65726f206164647265604482015261737360f01b6064820152608490fd5b60405162461bcd60e51b8152602060048201526024808201527f45524332303a20617070726f76652066726f6d20746865207a65726f206164646044820152637265737360e01b6064820152608490fd5b9060018060a01b0380831660005260016020526040600020908216600052602052604060002054926000198403610ce6575b50505050565b808410610d0157610cf8930391610bac565b38808080610ce0565b60405162461bcd60e51b815260206004820152601d60248201527f45524332303a20696e73756666696369656e7420616c6c6f77616e63650000006044820152606490fd5b6040516370a0823160e01b81523060048201526020816024817f00000000000000000000000000000000000000000000000000000000000000006001600160a01b03165afa908115610dcb57600091610d9d575090565b906020823d8211610dc3575b81610db6602093836109e3565b810103126102c657505190565b3d9150610da9565b6040513d6000823e3d90fd5b60025460018101809111610a2857610ded610d46565b9060018201809211610a2857610e02926113a0565b90565b60025460018101809111610a2857610e1b610d46565b9060018201809211610a2857610e02926113e0565b610e38610d46565b60018101809111610a28576002549060018201809211610a2857610e02926113a0565b610e63610d46565b60018101809111610a28576002549060018201809211610a2857610e02926113e0565b6040516323b872dd60e01b60208201526001600160a01b039182166024820181905230604483015260648083018690528252939460a08201939192919067ffffffffffffffff851184861017610a0557610f266040947fdcbc1c05240f31ff3ad067ef1ee35ce4997762752e3a095284754544f4c709d79686527f00000000000000000000000000000000000000000000000000000000000000006111bb565b610f308183610f3f565b835196875260208701521693a3565b6001600160a01b0316908115610f9d577fddf252ad1be2c89b69c2b068fc378daa952ba7f163c4a11628f55a4df523b3ef602082610f81600094600254610a1b565b60025584845283825260408420818154019055604051908152a3565b60405162461bcd60e51b815260206004820152601f60248201527f45524332303a206d696e7420746f20746865207a65726f2061646472657373006044820152606490fd5b6001600160a01b03808416958183169490939261100b918591828a89036110a3575b50506110b4565b6040519163a9059cbb60e01b6020840152169384602483015280604483015260448252608082019282841067ffffffffffffffff851117610a05576110966040937ffbde797d201c681b91056529119e0b02407c7bb96a4a2c75c01fc9667232c8db9585527f00000000000000000000000000000000000000000000000000000000000000006111bb565b82519182526020820152a4565b6110ad9183610cae565b3882611004565b6001600160a01b0316801561116c5760009181835282602052604083205481811061111c57817fddf252ad1be2c89b69c2b068fc378daa952ba7f163c4a11628f55a4df523b3ef926020928587528684520360408620558060025403600255604051908152a3565b60405162461bcd60e51b815260206004820152602260248201527f45524332303a206275726e20616d6f756e7420657863656564732062616c616e604482015261636560f01b6064820152608490fd5b60405162461bcd60e51b815260206004820152602160248201527f45524332303a206275726e2066726f6d20746865207a65726f206164647265736044820152607360f81b6064820152608490fd5b60018060a01b0316906040516040810167ffffffffffffffff9082811082821117610a05576040526020938483527f5361666545524332303a206c6f772d6c6576656c2063616c6c206661696c6564858401526000808587829751910182855af1903d15611300573d9283116112ec57906112569392916040519261124988601f19601f84011601856109e3565b83523d868885013e61130b565b8051918215918483156112c8575b5050509050156112715750565b6084906040519062461bcd60e51b82526004820152602a60248201527f5361666545524332303a204552433230206f7065726174696f6e20646964206e6044820152691bdd081cdd58d8d9595960b21b6064820152fd5b9193818094500103126101b0578201519081151582036102c6575080388084611264565b634e487b7160e01b85526041600452602485fd5b906112569392506060915b9192901561136d575081511561131f575090565b3b156113285790565b60405162461bcd60e51b815260206004820152601d60248201527f416464726573733a2063616c6c20746f206e6f6e2d636f6e74726163740000006044820152606490fd5b8251909150156113805750805190602001fd5b60405162461bcd60e51b815290819061139c90600483016108ca565b0390fd5b91906113ad8282856113e0565b9282156113ca57096113bc5790565b60018101809111610a285790565b634e487b7160e01b600052601260045260246000fd5b9160001982840992828102928380861095039480860395146114935784831115611456578291096001821901821680920460028082600302188083028203028083028203028083028203028083028203028083028203028092029003029360018380600003040190848311900302920304170290565b60405162461bcd60e51b81526020600482015260156024820152744d6174683a206d756c446976206f766572666c6f7760581b6044820152606490fd5b5050809250156113ca57049056fea2646970667358221220d490d81ce64c4555a263716a71bb5a5bca11edc374b29a2b427c156fab035e5364736f6c63430008140033","opcodes":"PUSH1 0xC0 DUP1 PUSH1 0x40 MSTORE CALLVALUE PUSH3 0x389 JUMPI DUP1 PUSH3 0x1982 DUP1 CODESIZE SUB DUP1 SWAP2 PUSH3 0x21 DUP3 DUP6 PUSH3 0x3AA JUMP JUMPDEST DUP4 CODECOPY PUSH1 0x20 SWAP3 DUP4 SWAP2 DUP2 ADD SUB SLT PUSH3 0x389 JUMPI MLOAD SWAP1 PUSH1 0x1 PUSH1 0x1 PUSH1 0xA0 SHL SUB DUP3 AND DUP3 SUB PUSH3 0x389 JUMPI PUSH1 0x40 MLOAD PUSH3 0x52 DUP2 PUSH3 0x38E JUMP JUMPDEST PUSH1 0xC DUP2 MSTORE PUSH12 0x26BCAB30BAB63A2A37B5B2B7 PUSH1 0xA1 SHL DUP3 DUP3 ADD MSTORE PUSH1 0x40 MLOAD PUSH3 0x78 DUP2 PUSH3 0x38E JUMP JUMPDEST PUSH1 0x3 DUP1 DUP3 MSTORE PUSH3 0x135595 PUSH1 0xEA SHL DUP5 DUP4 ADD MSTORE DUP3 MLOAD PUSH1 0x1 PUSH1 0x1 PUSH1 0x40 SHL SUB SWAP3 DUP4 DUP3 GT PUSH3 0x289 JUMPI DUP3 SLOAD SWAP2 PUSH1 0x1 SWAP6 DUP7 DUP5 DUP2 SHR SWAP5 AND DUP1 ISZERO PUSH3 0x37E JUMPI JUMPDEST DUP9 DUP6 LT EQ PUSH3 0x368 JUMPI DUP2 SWAP1 PUSH1 0x1F SWAP5 DUP6 DUP2 GT PUSH3 0x312 JUMPI JUMPDEST POP DUP9 SWAP1 DUP6 DUP4 GT PUSH1 0x1 EQ PUSH3 0x2AB JUMPI PUSH1 0x0 SWAP3 PUSH3 0x29F JUMPI JUMPDEST POP POP PUSH1 0x0 NOT DUP3 DUP7 SHL SHR NOT AND SWAP1 DUP7 SHL OR DUP4 SSTORE JUMPDEST DUP1 MLOAD SWAP4 DUP5 GT PUSH3 0x289 JUMPI PUSH1 0x4 SWAP6 DUP7 SLOAD DUP7 DUP2 DUP2 SHR SWAP2 AND DUP1 ISZERO PUSH3 0x27E JUMPI JUMPDEST DUP3 DUP3 LT EQ PUSH3 0x269 JUMPI DUP4 DUP2 GT PUSH3 0x21E JUMPI JUMPDEST POP DUP1 SWAP3 DUP6 GT PUSH1 0x1 EQ PUSH3 0x1B0 JUMPI POP SWAP4 DUP4 SWAP5 SWAP2 DUP5 SWAP3 PUSH1 0x0 SWAP6 PUSH3 0x1A4 JUMPI JUMPDEST POP POP SHL SWAP3 PUSH1 0x0 NOT SWAP2 SHL SHR NOT AND OR SWAP1 SSTORE JUMPDEST PUSH3 0x156 DUP2 PUSH3 0x3CE JUMP JUMPDEST SWAP1 ISZERO PUSH3 0x19B JUMPI JUMPDEST PUSH1 0xA0 MSTORE PUSH1 0x80 MSTORE PUSH1 0x40 MLOAD PUSH2 0x14D7 SWAP1 DUP2 PUSH3 0x4AB DUP3 CODECOPY PUSH1 0x80 MLOAD DUP2 DUP2 DUP2 PUSH2 0x68E ADD MSTORE DUP2 DUP2 PUSH2 0xD61 ADD MSTORE DUP2 DUP2 PUSH2 0xF02 ADD MSTORE PUSH2 0x1072 ADD MSTORE PUSH1 0xA0 MLOAD DUP2 PUSH2 0x6D3 ADD MSTORE RETURN JUMPDEST POP PUSH1 0x12 PUSH3 0x15E JUMP JUMPDEST ADD MLOAD SWAP4 POP CODESIZE DUP1 PUSH3 0x13B JUMP JUMPDEST SWAP3 SWAP2 SWAP1 DUP5 PUSH1 0x1F NOT DUP2 AND DUP9 PUSH1 0x0 MSTORE DUP6 PUSH1 0x0 KECCAK256 SWAP6 PUSH1 0x0 SWAP1 JUMPDEST DUP10 DUP4 DUP4 LT PUSH3 0x203 JUMPI POP POP POP LT PUSH3 0x1E8 JUMPI JUMPDEST POP POP POP POP DUP2 SHL ADD SWAP1 SSTORE PUSH3 0x14B JUMP JUMPDEST ADD MLOAD SWAP1 PUSH1 0xF8 DUP5 PUSH1 0x0 NOT SWAP3 SHL AND SHR NOT AND SWAP1 SSTORE CODESIZE DUP1 DUP1 DUP1 PUSH3 0x1D9 JUMP JUMPDEST DUP6 DUP8 ADD MLOAD DUP10 SSTORE SWAP1 SWAP8 ADD SWAP7 SWAP5 DUP6 ADD SWAP5 DUP9 SWAP4 POP SWAP1 DUP2 ADD SWAP1 PUSH3 0x1C6 JUMP JUMPDEST DUP8 PUSH1 0x0 MSTORE DUP2 PUSH1 0x0 KECCAK256 DUP5 DUP1 DUP9 ADD PUSH1 0x5 SHR DUP3 ADD SWAP3 DUP5 DUP10 LT PUSH3 0x25F JUMPI JUMPDEST ADD PUSH1 0x5 SHR ADD SWAP1 DUP8 SWAP1 JUMPDEST DUP3 DUP2 LT PUSH3 0x252 JUMPI POP POP PUSH3 0x11E JUMP JUMPDEST PUSH1 0x0 DUP2 SSTORE ADD DUP8 SWAP1 PUSH3 0x242 JUMP JUMPDEST SWAP3 POP DUP2 SWAP3 PUSH3 0x239 JUMP JUMPDEST PUSH1 0x22 DUP9 PUSH4 0x4E487B71 PUSH1 0xE0 SHL PUSH1 0x0 MSTORE MSTORE PUSH1 0x24 PUSH1 0x0 REVERT JUMPDEST SWAP1 PUSH1 0x7F AND SWAP1 PUSH3 0x10C JUMP JUMPDEST PUSH4 0x4E487B71 PUSH1 0xE0 SHL PUSH1 0x0 MSTORE PUSH1 0x41 PUSH1 0x4 MSTORE PUSH1 0x24 PUSH1 0x0 REVERT JUMPDEST ADD MLOAD SWAP1 POP CODESIZE DUP1 PUSH3 0xDD JUMP JUMPDEST SWAP1 DUP9 SWAP4 POP PUSH1 0x1F NOT DUP4 AND SWAP2 DUP8 PUSH1 0x0 MSTORE DUP11 PUSH1 0x0 KECCAK256 SWAP3 PUSH1 0x0 JUMPDEST DUP13 DUP3 DUP3 LT PUSH3 0x2FB JUMPI POP POP DUP5 GT PUSH3 0x2E2 JUMPI JUMPDEST POP POP POP DUP2 SHL ADD DUP4 SSTORE PUSH3 0xEF JUMP JUMPDEST ADD MLOAD PUSH1 0x0 NOT DUP4 DUP9 SHL PUSH1 0xF8 AND SHR NOT AND SWAP1 SSTORE CODESIZE DUP1 DUP1 PUSH3 0x2D4 JUMP JUMPDEST DUP4 DUP6 ADD MLOAD DUP7 SSTORE DUP13 SWAP8 SWAP1 SWAP6 ADD SWAP5 SWAP4 DUP5 ADD SWAP4 ADD PUSH3 0x2C1 JUMP JUMPDEST SWAP1 SWAP2 POP DUP6 PUSH1 0x0 MSTORE DUP9 PUSH1 0x0 KECCAK256 DUP6 DUP1 DUP6 ADD PUSH1 0x5 SHR DUP3 ADD SWAP3 DUP12 DUP7 LT PUSH3 0x35E JUMPI JUMPDEST SWAP2 DUP11 SWAP2 DUP7 SWAP6 SWAP5 SWAP4 ADD PUSH1 0x5 SHR ADD SWAP2 JUMPDEST DUP3 DUP2 LT PUSH3 0x34E JUMPI POP POP PUSH3 0xC6 JUMP JUMPDEST PUSH1 0x0 DUP2 SSTORE DUP6 SWAP5 POP DUP11 SWAP2 ADD PUSH3 0x33E JUMP JUMPDEST SWAP3 POP DUP2 SWAP3 PUSH3 0x330 JUMP JUMPDEST PUSH4 0x4E487B71 PUSH1 0xE0 SHL PUSH1 0x0 MSTORE PUSH1 0x22 PUSH1 0x4 MSTORE PUSH1 0x24 PUSH1 0x0 REVERT JUMPDEST SWAP4 PUSH1 0x7F AND SWAP4 PUSH3 0xAF JUMP JUMPDEST PUSH1 0x0 DUP1 REVERT JUMPDEST PUSH1 0x40 DUP2 ADD SWAP1 DUP2 LT PUSH1 0x1 PUSH1 0x1 PUSH1 0x40 SHL SUB DUP3 GT OR PUSH3 0x289 JUMPI PUSH1 0x40 MSTORE JUMP JUMPDEST PUSH1 0x1F SWAP1 SWAP2 ADD PUSH1 0x1F NOT AND DUP2 ADD SWAP1 PUSH1 0x1 PUSH1 0x1 PUSH1 0x40 SHL SUB DUP3 GT SWAP1 DUP3 LT OR PUSH3 0x289 JUMPI PUSH1 0x40 MSTORE JUMP JUMPDEST SWAP1 PUSH1 0x40 MLOAD PUSH1 0x20 SWAP1 DUP2 DUP2 ADD SWAP1 PUSH4 0x313CE567 PUSH1 0xE0 SHL DUP3 MSTORE PUSH1 0x4 DUP2 MSTORE PUSH3 0x3F2 DUP2 PUSH3 0x38E JUMP JUMPDEST MLOAD PUSH1 0x0 SWAP5 DUP6 SWAP3 DUP4 SWAP3 SWAP2 PUSH1 0x1 PUSH1 0x1 PUSH1 0xA0 SHL SUB AND GAS STATICCALL RETURNDATASIZE ISZERO PUSH3 0x4A1 JUMPI RETURNDATASIZE SWAP1 PUSH1 0x1 PUSH1 0x1 PUSH1 0x40 SHL SUB DUP3 GT PUSH3 0x48D JUMPI PUSH1 0x40 MLOAD SWAP2 PUSH3 0x437 PUSH1 0x1F DUP3 ADD PUSH1 0x1F NOT AND DUP6 ADD DUP5 PUSH3 0x3AA JUMP JUMPDEST DUP3 MSTORE RETURNDATASIZE DUP6 DUP5 DUP5 ADD RETURNDATACOPY JUMPDEST DUP1 PUSH3 0x481 JUMPI JUMPDEST PUSH3 0x453 JUMPI JUMPDEST POP POP DUP2 SWAP1 JUMP JUMPDEST DUP2 DUP2 DUP1 MLOAD DUP2 ADD SUB SLT PUSH3 0x47D JUMPI ADD MLOAD PUSH1 0xFF DUP2 GT ISZERO PUSH3 0x473 JUMPI DUP1 PUSH3 0x44D JUMP JUMPDEST PUSH1 0x1 SWAP3 POP PUSH1 0xFF AND SWAP1 JUMP JUMPDEST DUP4 DUP1 REVERT JUMPDEST POP DUP2 DUP2 MLOAD LT ISZERO PUSH3 0x447 JUMP JUMPDEST PUSH4 0x4E487B71 PUSH1 0xE0 SHL DUP6 MSTORE PUSH1 0x41 PUSH1 0x4 MSTORE PUSH1 0x24 DUP6 REVERT JUMPDEST PUSH1 0x60 SWAP1 PUSH3 0x440 JUMP INVALID PUSH1 0x40 PUSH1 0x80 DUP2 MSTORE PUSH1 0x4 SWAP1 DUP2 CALLDATASIZE LT ISZERO PUSH2 0x15 JUMPI PUSH1 0x0 DUP1 REVERT JUMPDEST PUSH1 0x0 SWAP1 DUP2 CALLDATALOAD PUSH1 0xE0 SHR SWAP3 DUP4 PUSH4 0x1E1D114 EQ PUSH2 0x8AE JUMPI DUP4 PUSH4 0x6FDDE03 EQ PUSH2 0x7BB JUMPI DUP4 PUSH4 0x7A2D13A EQ PUSH2 0x5E1 JUMPI DUP4 PUSH4 0x95EA7B3 EQ PUSH2 0x792 JUMPI DUP4 PUSH4 0xA28A477 EQ PUSH2 0x773 JUMPI DUP4 PUSH4 0x18160DDD EQ PUSH2 0x755 JUMPI DUP4 PUSH4 0x23B872DD EQ PUSH2 0x719 JUMPI DUP4 PUSH4 0x313CE567 EQ PUSH2 0x6BD JUMPI DUP4 PUSH4 0x38D52E0F EQ PUSH2 0x67A JUMPI DUP4 PUSH4 0x39509351 EQ PUSH2 0x62B JUMPI DUP4 PUSH4 0x402D267D EQ PUSH2 0x22C JUMPI DUP4 PUSH4 0x40C10F19 EQ PUSH2 0x607 JUMPI DUP4 PUSH4 0x42966C68 EQ PUSH2 0x5E6 JUMPI DUP4 PUSH4 0x4CDAD506 EQ PUSH2 0x5E1 JUMPI DUP4 PUSH4 0x6E553F65 EQ PUSH2 0x5AE JUMPI DUP4 PUSH4 0x70A08231 EQ PUSH2 0x58E JUMPI DUP4 PUSH4 0x94BF804D EQ PUSH2 0x557 JUMPI DUP4 PUSH4 0x95D89B41 EQ PUSH2 0x454 JUMPI DUP4 PUSH4 0xA457C2D7 EQ PUSH2 0x3B1 JUMPI DUP4 PUSH4 0xA9059CBB EQ PUSH2 0x381 JUMPI DUP4 PUSH4 0xB3D7F6B9 EQ PUSH2 0x362 JUMPI DUP4 PUSH4 0xB460AF94 EQ PUSH2 0x2C9 JUMPI DUP4 PUSH4 0xBA087652 EQ PUSH2 0x231 JUMPI POP DUP3 PUSH4 0xC63D75B6 EQ PUSH2 0x22C JUMPI DUP3 PUSH4 0xC6E6F592 EQ PUSH2 0x164 JUMPI DUP3 PUSH4 0xCE96CB77 EQ PUSH2 0x1F5 JUMPI DUP3 PUSH4 0xD905777E EQ PUSH2 0x1B4 JUMPI DUP3 PUSH4 0xDD62ED3E EQ PUSH2 0x169 JUMPI POP POP PUSH4 0xEF8B30F7 EQ PUSH2 0x164 JUMPI PUSH1 0x0 DUP1 REVERT JUMPDEST PUSH2 0x9C5 JUMP JUMPDEST CALLVALUE PUSH2 0x1B0 JUMPI DUP1 PUSH1 0x3 NOT CALLDATASIZE ADD SLT PUSH2 0x1B0 JUMPI DUP1 PUSH1 0x20 SWAP3 PUSH2 0x185 PUSH2 0x93E JUMP JUMPDEST PUSH2 0x18D PUSH2 0x954 JUMP JUMPDEST PUSH1 0x1 PUSH1 0x1 PUSH1 0xA0 SHL SUB SWAP2 DUP3 AND DUP4 MSTORE PUSH1 0x1 DUP7 MSTORE DUP4 DUP4 KECCAK256 SWAP2 AND DUP3 MSTORE DUP5 MSTORE KECCAK256 SLOAD SWAP1 MLOAD SWAP1 DUP2 MSTORE RETURN JUMPDEST POP DUP1 REVERT JUMPDEST CALLVALUE PUSH2 0x1B0 JUMPI PUSH1 0x20 CALLDATASIZE PUSH1 0x3 NOT ADD SLT PUSH2 0x1B0 JUMPI PUSH1 0x20 SWAP1 PUSH2 0x1EE PUSH2 0x1D3 PUSH2 0x93E JUMP JUMPDEST PUSH1 0x1 PUSH1 0x1 PUSH1 0xA0 SHL SUB AND PUSH1 0x0 SWAP1 DUP2 MSTORE PUSH1 0x20 DUP2 SWAP1 MSTORE PUSH1 0x40 SWAP1 KECCAK256 SLOAD SWAP1 JUMP JUMPDEST SWAP1 MLOAD SWAP1 DUP2 MSTORE RETURN JUMPDEST CALLVALUE PUSH2 0x1B0 JUMPI PUSH1 0x20 CALLDATASIZE PUSH1 0x3 NOT ADD SLT PUSH2 0x1B0 JUMPI PUSH1 0x20 SWAP2 PUSH2 0x1EE SWAP1 DUP3 SWAP1 PUSH1 0x1 PUSH1 0x1 PUSH1 0xA0 SHL SUB PUSH2 0x21F PUSH2 0x93E JUMP JUMPDEST AND DUP2 MSTORE DUP1 DUP6 MSTORE KECCAK256 SLOAD PUSH2 0xE5B JUMP JUMPDEST PUSH2 0x96A JUMP JUMPDEST DUP3 CALLVALUE PUSH2 0x2C6 JUMPI DUP3 SWAP1 PUSH2 0x242 CALLDATASIZE PUSH2 0x990 JUMP JUMPDEST PUSH1 0x1 PUSH1 0x1 PUSH1 0xA0 SHL SUB DUP2 AND DUP5 MSTORE PUSH1 0x20 DUP5 SWAP1 MSTORE SWAP4 SWAP1 SWAP3 KECCAK256 SLOAD SWAP3 SWAP4 SWAP1 SWAP3 DUP4 GT PUSH2 0x283 JUMPI POP DUP2 PUSH2 0x27D SWAP2 PUSH2 0x274 PUSH1 0x20 SWAP7 SWAP5 PUSH2 0xE5B JUMP JUMPDEST SWAP5 DUP6 SWAP2 CALLER PUSH2 0xFE2 JUMP JUMPDEST MLOAD SWAP1 DUP2 MSTORE RETURN JUMPDEST PUSH1 0x64 SWAP1 PUSH1 0x20 DUP7 MLOAD SWAP2 PUSH3 0x461BCD PUSH1 0xE5 SHL DUP4 MSTORE DUP3 ADD MSTORE PUSH1 0x1D PUSH1 0x24 DUP3 ADD MSTORE PUSH32 0x455243343632363A2072656465656D206D6F7265207468616E206D6178000000 PUSH1 0x44 DUP3 ADD MSTORE REVERT JUMPDEST DUP1 REVERT JUMPDEST DUP3 SWAP1 CALLVALUE PUSH2 0x1B0 JUMPI SWAP1 DUP3 PUSH2 0x2FE SWAP3 PUSH2 0x2DF CALLDATASIZE PUSH2 0x990 JUMP JUMPDEST PUSH1 0x1 PUSH1 0x1 PUSH1 0xA0 SHL SUB DUP2 AND DUP7 MSTORE PUSH1 0x20 DUP7 SWAP1 MSTORE SWAP4 SWAP1 SWAP5 KECCAK256 SLOAD SWAP3 SWAP5 SWAP1 SWAP3 PUSH2 0xE5B JUMP JUMPDEST DUP3 GT PUSH2 0x31F JUMPI POP PUSH1 0x20 SWAP4 SWAP2 DUP2 PUSH2 0x316 PUSH2 0x27D SWAP4 PUSH2 0xDD7 JUMP JUMPDEST SWAP5 DUP6 SWAP3 CALLER PUSH2 0xFE2 JUMP JUMPDEST PUSH1 0x64 SWAP1 PUSH1 0x20 DUP7 MLOAD SWAP2 PUSH3 0x461BCD PUSH1 0xE5 SHL DUP4 MSTORE DUP3 ADD MSTORE PUSH1 0x1F PUSH1 0x24 DUP3 ADD MSTORE PUSH32 0x455243343632363A207769746864726177206D6F7265207468616E206D617800 PUSH1 0x44 DUP3 ADD MSTORE REVERT JUMPDEST SWAP2 CALLVALUE PUSH2 0x2C6 JUMPI PUSH1 0x20 CALLDATASIZE PUSH1 0x3 NOT ADD SLT PUSH2 0x2C6 JUMPI POP PUSH2 0x1EE PUSH1 0x20 SWAP3 CALLDATALOAD PUSH2 0xE30 JUMP JUMPDEST POP CALLVALUE PUSH2 0x1B0 JUMPI DUP1 PUSH1 0x3 NOT CALLDATASIZE ADD SLT PUSH2 0x1B0 JUMPI PUSH1 0x20 SWAP1 PUSH2 0x3AA PUSH2 0x3A0 PUSH2 0x93E JUMP JUMPDEST PUSH1 0x24 CALLDATALOAD SWAP1 CALLER PUSH2 0xA3E JUMP JUMPDEST MLOAD PUSH1 0x1 DUP2 MSTORE RETURN JUMPDEST DUP3 CALLVALUE PUSH2 0x2C6 JUMPI DUP3 PUSH1 0x3 NOT CALLDATASIZE ADD SLT PUSH2 0x2C6 JUMPI PUSH2 0x3CA PUSH2 0x93E JUMP JUMPDEST SWAP2 DUP4 PUSH1 0x24 CALLDATALOAD SWAP3 CALLER DUP2 MSTORE PUSH1 0x1 PUSH1 0x20 MSTORE DUP2 DUP2 KECCAK256 PUSH1 0x1 DUP1 PUSH1 0xA0 SHL SUB DUP7 AND DUP3 MSTORE PUSH1 0x20 MSTORE KECCAK256 SLOAD SWAP1 DUP3 DUP3 LT PUSH2 0x403 JUMPI PUSH1 0x20 DUP6 PUSH2 0x3AA DUP6 DUP6 SUB DUP8 CALLER PUSH2 0xBAC JUMP JUMPDEST PUSH1 0x84 SWAP1 PUSH1 0x20 DUP7 MLOAD SWAP2 PUSH3 0x461BCD PUSH1 0xE5 SHL DUP4 MSTORE DUP3 ADD MSTORE PUSH1 0x25 PUSH1 0x24 DUP3 ADD MSTORE PUSH32 0x45524332303A2064656372656173656420616C6C6F77616E63652062656C6F77 PUSH1 0x44 DUP3 ADD MSTORE PUSH5 0x207A65726F PUSH1 0xD8 SHL PUSH1 0x64 DUP3 ADD MSTORE REVERT JUMPDEST SWAP3 POP CALLVALUE PUSH2 0x1B0 JUMPI DUP2 PUSH1 0x3 NOT CALLDATASIZE ADD SLT PUSH2 0x1B0 JUMPI DUP1 MLOAD SWAP2 DUP1 SWAP4 DUP1 SLOAD SWAP2 PUSH1 0x1 SWAP1 DUP4 DUP3 SHR SWAP3 DUP3 DUP6 AND SWAP5 DUP6 ISZERO PUSH2 0x54D JUMPI JUMPDEST PUSH1 0x20 SWAP6 DUP7 DUP7 LT DUP2 EQ PUSH2 0x53A JUMPI DUP6 DUP10 MSTORE SWAP1 DUP2 ISZERO PUSH2 0x516 JUMPI POP PUSH1 0x1 EQ PUSH2 0x4BE JUMPI JUMPDEST PUSH2 0x4BA DUP8 DUP8 PUSH2 0x4B0 DUP3 DUP13 SUB DUP4 PUSH2 0x9E3 JUMP JUMPDEST MLOAD SWAP2 DUP3 SWAP2 DUP3 PUSH2 0x8CA JUMP JUMPDEST SUB SWAP1 RETURN JUMPDEST DUP2 MSTORE SWAP3 SWAP6 POP PUSH32 0x8A35ACFBC15FF81A39AE7D344FD709F28E8600B4AA8C65C6B64BFE7FE36BD19B JUMPDEST DUP3 DUP5 LT PUSH2 0x503 JUMPI POP POP POP DUP3 PUSH2 0x4BA SWAP5 PUSH2 0x4B0 SWAP3 DUP3 ADD ADD SWAP5 CODESIZE DUP1 PUSH2 0x49F JUMP JUMPDEST DUP1 SLOAD DUP7 DUP6 ADD DUP9 ADD MSTORE SWAP3 DUP7 ADD SWAP3 DUP2 ADD PUSH2 0x4E5 JUMP JUMPDEST PUSH1 0xFF NOT AND DUP9 DUP8 ADD MSTORE POP POP POP POP ISZERO ISZERO PUSH1 0x5 SHL DUP4 ADD ADD SWAP3 POP PUSH2 0x4B0 DUP3 PUSH2 0x4BA CODESIZE DUP1 PUSH2 0x49F JUMP JUMPDEST PUSH4 0x4E487B71 PUSH1 0xE0 SHL DUP5 MSTORE PUSH1 0x22 DUP4 MSTORE PUSH1 0x24 DUP5 REVERT JUMPDEST SWAP4 PUSH1 0x7F AND SWAP4 PUSH2 0x480 JUMP JUMPDEST CALLVALUE PUSH2 0x58A JUMPI DUP2 PUSH1 0x3 NOT CALLDATASIZE ADD SLT PUSH2 0x58A JUMPI PUSH1 0x20 SWAP3 POP CALLDATALOAD SWAP1 PUSH2 0x27D PUSH2 0x578 PUSH2 0x954 JUMP JUMPDEST SWAP3 PUSH2 0x582 DUP2 PUSH2 0xE30 JUMP JUMPDEST DUP1 SWAP5 CALLER PUSH2 0xE86 JUMP JUMPDEST DUP3 DUP1 REVERT JUMPDEST POP CALLVALUE PUSH2 0x1B0 JUMPI PUSH1 0x20 CALLDATASIZE PUSH1 0x3 NOT ADD SLT PUSH2 0x1B0 JUMPI PUSH1 0x20 SWAP1 PUSH2 0x1EE PUSH2 0x1D3 PUSH2 0x93E JUMP JUMPDEST CALLVALUE PUSH2 0x58A JUMPI DUP2 PUSH1 0x3 NOT CALLDATASIZE ADD SLT PUSH2 0x58A JUMPI PUSH1 0x20 SWAP3 POP CALLDATALOAD SWAP1 PUSH2 0x27D PUSH2 0x5CF PUSH2 0x954 JUMP JUMPDEST PUSH2 0x5D8 DUP5 PUSH2 0xE05 JUMP JUMPDEST SWAP4 DUP5 SWAP2 CALLER PUSH2 0xE86 JUMP JUMPDEST PUSH2 0x913 JUMP JUMPDEST SWAP1 POP CALLVALUE PUSH2 0x1B0 JUMPI PUSH1 0x20 CALLDATASIZE PUSH1 0x3 NOT ADD SLT PUSH2 0x1B0 JUMPI PUSH2 0x604 SWAP1 CALLDATALOAD CALLER PUSH2 0x10B4 JUMP JUMPDEST DUP1 RETURN JUMPDEST POP CALLVALUE PUSH2 0x1B0 JUMPI CALLDATASIZE PUSH1 0x3 NOT ADD SLT PUSH2 0x2C6 JUMPI PUSH2 0x604 PUSH2 0x622 PUSH2 0x93E JUMP JUMPDEST PUSH1 0x24 CALLDATALOAD SWAP1 PUSH2 0xF3F JUMP JUMPDEST POP CALLVALUE PUSH2 0x1B0 JUMPI DUP1 PUSH1 0x3 NOT CALLDATASIZE ADD SLT PUSH2 0x1B0 JUMPI PUSH2 0x3AA PUSH1 0x20 SWAP3 PUSH2 0x673 PUSH2 0x64D PUSH2 0x93E JUMP JUMPDEST CALLER DUP4 MSTORE PUSH1 0x1 DUP7 MSTORE DUP5 DUP4 KECCAK256 PUSH1 0x1 PUSH1 0x1 PUSH1 0xA0 SHL SUB DUP3 AND DUP5 MSTORE DUP7 MSTORE SWAP2 DUP5 SWAP1 KECCAK256 SLOAD PUSH1 0x24 CALLDATALOAD SWAP1 PUSH2 0xA1B JUMP JUMPDEST SWAP1 CALLER PUSH2 0xBAC JUMP JUMPDEST POP CALLVALUE PUSH2 0x1B0 JUMPI DUP2 PUSH1 0x3 NOT CALLDATASIZE ADD SLT PUSH2 0x1B0 JUMPI MLOAD PUSH32 0x0 PUSH1 0x1 PUSH1 0x1 PUSH1 0xA0 SHL SUB AND DUP2 MSTORE PUSH1 0x20 SWAP1 RETURN JUMPDEST SWAP3 POP CALLVALUE PUSH2 0x1B0 JUMPI DUP2 PUSH1 0x3 NOT CALLDATASIZE ADD SLT PUSH2 0x1B0 JUMPI PUSH1 0xFF PUSH32 0x0 AND SWAP2 PUSH1 0xFF DUP4 GT PUSH2 0x706 JUMPI PUSH1 0x20 DUP4 DUP4 MLOAD SWAP1 DUP2 MSTORE RETURN JUMPDEST PUSH4 0x4E487B71 PUSH1 0xE0 SHL DUP2 MSTORE PUSH1 0x11 DUP5 MSTORE PUSH1 0x24 SWAP1 REVERT JUMPDEST POP CALLVALUE PUSH2 0x1B0 JUMPI PUSH1 0x60 CALLDATASIZE PUSH1 0x3 NOT ADD SLT PUSH2 0x1B0 JUMPI PUSH1 0x20 SWAP1 PUSH2 0x3AA PUSH2 0x739 PUSH2 0x93E JUMP JUMPDEST PUSH2 0x741 PUSH2 0x954 JUMP JUMPDEST PUSH1 0x44 CALLDATALOAD SWAP2 PUSH2 0x750 DUP4 CALLER DUP4 PUSH2 0xCAE JUMP JUMPDEST PUSH2 0xA3E JUMP JUMPDEST POP CALLVALUE PUSH2 0x1B0 JUMPI DUP2 PUSH1 0x3 NOT CALLDATASIZE ADD SLT PUSH2 0x1B0 JUMPI PUSH1 0x20 SWAP1 PUSH1 0x2 SLOAD SWAP1 MLOAD SWAP1 DUP2 MSTORE RETURN JUMPDEST SWAP2 CALLVALUE PUSH2 0x2C6 JUMPI PUSH1 0x20 CALLDATASIZE PUSH1 0x3 NOT ADD SLT PUSH2 0x2C6 JUMPI POP PUSH2 0x1EE PUSH1 0x20 SWAP3 CALLDATALOAD PUSH2 0xDD7 JUMP JUMPDEST POP CALLVALUE PUSH2 0x1B0 JUMPI DUP1 PUSH1 0x3 NOT CALLDATASIZE ADD SLT PUSH2 0x1B0 JUMPI PUSH1 0x20 SWAP1 PUSH2 0x3AA PUSH2 0x7B1 PUSH2 0x93E JUMP JUMPDEST PUSH1 0x24 CALLDATALOAD SWAP1 CALLER PUSH2 0xBAC JUMP JUMPDEST SWAP1 CALLVALUE PUSH2 0x58A JUMPI DUP3 PUSH1 0x3 NOT CALLDATASIZE ADD SLT PUSH2 0x58A JUMPI DUP1 MLOAD SWAP2 DUP4 PUSH1 0x3 SLOAD SWAP1 PUSH1 0x1 SWAP1 DUP3 DUP3 SHR SWAP3 DUP3 DUP2 AND DUP1 ISZERO PUSH2 0x8A4 JUMPI JUMPDEST PUSH1 0x20 SWAP6 DUP7 DUP7 LT DUP3 EQ PUSH2 0x891 JUMPI POP DUP5 DUP9 MSTORE SWAP1 DUP2 ISZERO PUSH2 0x86F JUMPI POP PUSH1 0x1 EQ PUSH2 0x816 JUMPI JUMPDEST PUSH2 0x4BA DUP7 DUP7 PUSH2 0x4B0 DUP3 DUP12 SUB DUP4 PUSH2 0x9E3 JUMP JUMPDEST SWAP3 SWAP6 POP PUSH1 0x3 DUP4 MSTORE PUSH32 0xC2575A0E9E593C00F959F8C92F12DB2869C3395A3B0502D05E2516446F71F85B JUMPDEST DUP3 DUP5 LT PUSH2 0x85C JUMPI POP POP POP DUP3 PUSH2 0x4BA SWAP5 PUSH2 0x4B0 SWAP3 DUP3 ADD ADD SWAP5 DUP7 PUSH2 0x805 JUMP JUMPDEST DUP1 SLOAD DUP7 DUP6 ADD DUP9 ADD MSTORE SWAP3 DUP7 ADD SWAP3 DUP2 ADD PUSH2 0x83F JUMP JUMPDEST PUSH1 0xFF NOT AND DUP8 DUP7 ADD MSTORE POP POP POP ISZERO ISZERO PUSH1 0x5 SHL DUP4 ADD ADD SWAP3 POP PUSH2 0x4B0 DUP3 PUSH2 0x4BA DUP7 PUSH2 0x805 JUMP JUMPDEST PUSH4 0x4E487B71 PUSH1 0xE0 SHL DUP5 MSTORE PUSH1 0x22 SWAP1 MSTORE PUSH1 0x24 DUP4 REVERT JUMPDEST SWAP4 PUSH1 0x7F AND SWAP4 PUSH2 0x7E5 JUMP JUMPDEST POP CALLVALUE PUSH2 0x1B0 JUMPI DUP2 PUSH1 0x3 NOT CALLDATASIZE ADD SLT PUSH2 0x1B0 JUMPI PUSH1 0x20 SWAP1 PUSH2 0x1EE PUSH2 0xD46 JUMP JUMPDEST PUSH1 0x20 DUP1 DUP3 MSTORE DUP3 MLOAD DUP2 DUP4 ADD DUP2 SWAP1 MSTORE SWAP1 SWAP4 SWAP3 PUSH1 0x0 JUMPDEST DUP3 DUP2 LT PUSH2 0x8FF JUMPI POP POP PUSH1 0x40 SWAP3 SWAP4 POP PUSH1 0x0 DUP4 DUP3 DUP5 ADD ADD MSTORE PUSH1 0x1F DUP1 NOT SWAP2 ADD AND ADD ADD SWAP1 JUMP JUMPDEST DUP2 DUP2 ADD DUP7 ADD MLOAD DUP5 DUP3 ADD PUSH1 0x40 ADD MSTORE DUP6 ADD PUSH2 0x8DD JUMP JUMPDEST CALLVALUE PUSH2 0x939 JUMPI PUSH1 0x20 CALLDATASIZE PUSH1 0x3 NOT ADD SLT PUSH2 0x939 JUMPI PUSH1 0x20 PUSH2 0x931 PUSH1 0x4 CALLDATALOAD PUSH2 0xE5B JUMP JUMPDEST PUSH1 0x40 MLOAD SWAP1 DUP2 MSTORE RETURN JUMPDEST PUSH1 0x0 DUP1 REVERT JUMPDEST PUSH1 0x4 CALLDATALOAD SWAP1 PUSH1 0x1 PUSH1 0x1 PUSH1 0xA0 SHL SUB DUP3 AND DUP3 SUB PUSH2 0x939 JUMPI JUMP JUMPDEST PUSH1 0x24 CALLDATALOAD SWAP1 PUSH1 0x1 PUSH1 0x1 PUSH1 0xA0 SHL SUB DUP3 AND DUP3 SUB PUSH2 0x939 JUMPI JUMP JUMPDEST CALLVALUE PUSH2 0x939 JUMPI PUSH1 0x20 CALLDATASIZE PUSH1 0x3 NOT ADD SLT PUSH2 0x939 JUMPI PUSH2 0x983 PUSH2 0x93E JUMP JUMPDEST POP PUSH1 0x20 PUSH1 0x40 MLOAD PUSH1 0x0 NOT DUP2 MSTORE RETURN JUMPDEST PUSH1 0x60 SWAP1 PUSH1 0x3 NOT ADD SLT PUSH2 0x939 JUMPI PUSH1 0x4 CALLDATALOAD SWAP1 PUSH1 0x1 PUSH1 0x1 PUSH1 0xA0 SHL SUB SWAP1 PUSH1 0x24 CALLDATALOAD DUP3 DUP2 AND DUP2 SUB PUSH2 0x939 JUMPI SWAP2 PUSH1 0x44 CALLDATALOAD SWAP1 DUP2 AND DUP2 SUB PUSH2 0x939 JUMPI SWAP1 JUMP JUMPDEST CALLVALUE PUSH2 0x939 JUMPI PUSH1 0x20 CALLDATASIZE PUSH1 0x3 NOT ADD SLT PUSH2 0x939 JUMPI PUSH1 0x20 PUSH2 0x931 PUSH1 0x4 CALLDATALOAD PUSH2 0xE05 JUMP JUMPDEST SWAP1 PUSH1 0x1F DUP1 NOT SWAP2 ADD AND DUP2 ADD SWAP1 DUP2 LT PUSH8 0xFFFFFFFFFFFFFFFF DUP3 GT OR PUSH2 0xA05 JUMPI PUSH1 0x40 MSTORE JUMP JUMPDEST PUSH4 0x4E487B71 PUSH1 0xE0 SHL PUSH1 0x0 MSTORE PUSH1 0x41 PUSH1 0x4 MSTORE PUSH1 0x24 PUSH1 0x0 REVERT JUMPDEST SWAP2 SWAP1 DUP3 ADD DUP1 SWAP3 GT PUSH2 0xA28 JUMPI JUMP JUMPDEST PUSH4 0x4E487B71 PUSH1 0xE0 SHL PUSH1 0x0 MSTORE PUSH1 0x11 PUSH1 0x4 MSTORE PUSH1 0x24 PUSH1 0x0 REVERT JUMPDEST PUSH1 0x1 PUSH1 0x1 PUSH1 0xA0 SHL SUB SWAP1 DUP2 AND SWAP2 DUP3 ISZERO PUSH2 0xB59 JUMPI AND SWAP2 DUP3 ISZERO PUSH2 0xB08 JUMPI PUSH1 0x0 DUP3 DUP2 MSTORE DUP1 PUSH1 0x20 MSTORE PUSH1 0x40 DUP2 KECCAK256 SLOAD SWAP2 DUP1 DUP4 LT PUSH2 0xAB4 JUMPI PUSH1 0x40 DUP3 DUP3 PUSH32 0xDDF252AD1BE2C89B69C2B068FC378DAA952BA7F163C4A11628F55A4DF523B3EF SWAP6 DUP8 PUSH1 0x20 SWAP7 MSTORE DUP3 DUP7 MSTORE SUB DUP3 DUP3 KECCAK256 SSTORE DUP7 DUP2 MSTORE KECCAK256 DUP2 DUP2 SLOAD ADD SWAP1 SSTORE PUSH1 0x40 MLOAD SWAP1 DUP2 MSTORE LOG3 JUMP JUMPDEST PUSH1 0x40 MLOAD PUSH3 0x461BCD PUSH1 0xE5 SHL DUP2 MSTORE PUSH1 0x20 PUSH1 0x4 DUP3 ADD MSTORE PUSH1 0x26 PUSH1 0x24 DUP3 ADD MSTORE PUSH32 0x45524332303A207472616E7366657220616D6F756E7420657863656564732062 PUSH1 0x44 DUP3 ADD MSTORE PUSH6 0x616C616E6365 PUSH1 0xD0 SHL PUSH1 0x64 DUP3 ADD MSTORE PUSH1 0x84 SWAP1 REVERT JUMPDEST PUSH1 0x40 MLOAD PUSH3 0x461BCD PUSH1 0xE5 SHL DUP2 MSTORE PUSH1 0x20 PUSH1 0x4 DUP3 ADD MSTORE PUSH1 0x23 PUSH1 0x24 DUP3 ADD MSTORE PUSH32 0x45524332303A207472616E7366657220746F20746865207A65726F2061646472 PUSH1 0x44 DUP3 ADD MSTORE PUSH3 0x657373 PUSH1 0xE8 SHL PUSH1 0x64 DUP3 ADD MSTORE PUSH1 0x84 SWAP1 REVERT JUMPDEST PUSH1 0x40 MLOAD PUSH3 0x461BCD PUSH1 0xE5 SHL DUP2 MSTORE PUSH1 0x20 PUSH1 0x4 DUP3 ADD MSTORE PUSH1 0x25 PUSH1 0x24 DUP3 ADD MSTORE PUSH32 0x45524332303A207472616E736665722066726F6D20746865207A65726F206164 PUSH1 0x44 DUP3 ADD MSTORE PUSH5 0x6472657373 PUSH1 0xD8 SHL PUSH1 0x64 DUP3 ADD MSTORE PUSH1 0x84 SWAP1 REVERT JUMPDEST PUSH1 0x1 PUSH1 0x1 PUSH1 0xA0 SHL SUB SWAP1 DUP2 AND SWAP2 DUP3 ISZERO PUSH2 0xC5D JUMPI AND SWAP2 DUP3 ISZERO PUSH2 0xC0D JUMPI PUSH1 0x20 PUSH32 0x8C5BE1E5EBEC7D5BD14F71427D1E84F3DD0314C0F7B2291E5B200AC8C7C3B925 SWAP2 DUP4 PUSH1 0x0 MSTORE PUSH1 0x1 DUP3 MSTORE PUSH1 0x40 PUSH1 0x0 KECCAK256 DUP6 PUSH1 0x0 MSTORE DUP3 MSTORE DUP1 PUSH1 0x40 PUSH1 0x0 KECCAK256 SSTORE PUSH1 0x40 MLOAD SWAP1 DUP2 MSTORE LOG3 JUMP JUMPDEST PUSH1 0x40 MLOAD PUSH3 0x461BCD PUSH1 0xE5 SHL DUP2 MSTORE PUSH1 0x20 PUSH1 0x4 DUP3 ADD MSTORE PUSH1 0x22 PUSH1 0x24 DUP3 ADD MSTORE PUSH32 0x45524332303A20617070726F766520746F20746865207A65726F206164647265 PUSH1 0x44 DUP3 ADD MSTORE PUSH2 0x7373 PUSH1 0xF0 SHL PUSH1 0x64 DUP3 ADD MSTORE PUSH1 0x84 SWAP1 REVERT JUMPDEST PUSH1 0x40 MLOAD PUSH3 0x461BCD PUSH1 0xE5 SHL DUP2 MSTORE PUSH1 0x20 PUSH1 0x4 DUP3 ADD MSTORE PUSH1 0x24 DUP1 DUP3 ADD MSTORE PUSH32 0x45524332303A20617070726F76652066726F6D20746865207A65726F20616464 PUSH1 0x44 DUP3 ADD MSTORE PUSH4 0x72657373 PUSH1 0xE0 SHL PUSH1 0x64 DUP3 ADD MSTORE PUSH1 0x84 SWAP1 REVERT JUMPDEST SWAP1 PUSH1 0x1 DUP1 PUSH1 0xA0 SHL SUB DUP1 DUP4 AND PUSH1 0x0 MSTORE PUSH1 0x1 PUSH1 0x20 MSTORE PUSH1 0x40 PUSH1 0x0 KECCAK256 SWAP1 DUP3 AND PUSH1 0x0 MSTORE PUSH1 0x20 MSTORE PUSH1 0x40 PUSH1 0x0 KECCAK256 SLOAD SWAP3 PUSH1 0x0 NOT DUP5 SUB PUSH2 0xCE6 JUMPI JUMPDEST POP POP POP POP JUMP JUMPDEST DUP1 DUP5 LT PUSH2 0xD01 JUMPI PUSH2 0xCF8 SWAP4 SUB SWAP2 PUSH2 0xBAC JUMP JUMPDEST CODESIZE DUP1 DUP1 DUP1 PUSH2 0xCE0 JUMP JUMPDEST PUSH1 0x40 MLOAD PUSH3 0x461BCD PUSH1 0xE5 SHL DUP2 MSTORE PUSH1 0x20 PUSH1 0x4 DUP3 ADD MSTORE PUSH1 0x1D PUSH1 0x24 DUP3 ADD MSTORE PUSH32 0x45524332303A20696E73756666696369656E7420616C6C6F77616E6365000000 PUSH1 0x44 DUP3 ADD MSTORE PUSH1 0x64 SWAP1 REVERT JUMPDEST PUSH1 0x40 MLOAD PUSH4 0x70A08231 PUSH1 0xE0 SHL DUP2 MSTORE ADDRESS PUSH1 0x4 DUP3 ADD MSTORE PUSH1 0x20 DUP2 PUSH1 0x24 DUP2 PUSH32 0x0 PUSH1 0x1 PUSH1 0x1 PUSH1 0xA0 SHL SUB AND GAS STATICCALL SWAP1 DUP2 ISZERO PUSH2 0xDCB JUMPI PUSH1 0x0 SWAP2 PUSH2 0xD9D JUMPI POP SWAP1 JUMP JUMPDEST SWAP1 PUSH1 0x20 DUP3 RETURNDATASIZE DUP3 GT PUSH2 0xDC3 JUMPI JUMPDEST DUP2 PUSH2 0xDB6 PUSH1 0x20 SWAP4 DUP4 PUSH2 0x9E3 JUMP JUMPDEST DUP2 ADD SUB SLT PUSH2 0x2C6 JUMPI POP MLOAD SWAP1 JUMP JUMPDEST RETURNDATASIZE SWAP2 POP PUSH2 0xDA9 JUMP JUMPDEST PUSH1 0x40 MLOAD RETURNDATASIZE PUSH1 0x0 DUP3 RETURNDATACOPY RETURNDATASIZE SWAP1 REVERT JUMPDEST PUSH1 0x2 SLOAD PUSH1 0x1 DUP2 ADD DUP1 SWAP2 GT PUSH2 0xA28 JUMPI PUSH2 0xDED PUSH2 0xD46 JUMP JUMPDEST SWAP1 PUSH1 0x1 DUP3 ADD DUP1 SWAP3 GT PUSH2 0xA28 JUMPI PUSH2 0xE02 SWAP3 PUSH2 0x13A0 JUMP JUMPDEST SWAP1 JUMP JUMPDEST PUSH1 0x2 SLOAD PUSH1 0x1 DUP2 ADD DUP1 SWAP2 GT PUSH2 0xA28 JUMPI PUSH2 0xE1B PUSH2 0xD46 JUMP JUMPDEST SWAP1 PUSH1 0x1 DUP3 ADD DUP1 SWAP3 GT PUSH2 0xA28 JUMPI PUSH2 0xE02 SWAP3 PUSH2 0x13E0 JUMP JUMPDEST PUSH2 0xE38 PUSH2 0xD46 JUMP JUMPDEST PUSH1 0x1 DUP2 ADD DUP1 SWAP2 GT PUSH2 0xA28 JUMPI PUSH1 0x2 SLOAD SWAP1 PUSH1 0x1 DUP3 ADD DUP1 SWAP3 GT PUSH2 0xA28 JUMPI PUSH2 0xE02 SWAP3 PUSH2 0x13A0 JUMP JUMPDEST PUSH2 0xE63 PUSH2 0xD46 JUMP JUMPDEST PUSH1 0x1 DUP2 ADD DUP1 SWAP2 GT PUSH2 0xA28 JUMPI PUSH1 0x2 SLOAD SWAP1 PUSH1 0x1 DUP3 ADD DUP1 SWAP3 GT PUSH2 0xA28 JUMPI PUSH2 0xE02 SWAP3 PUSH2 0x13E0 JUMP JUMPDEST PUSH1 0x40 MLOAD PUSH4 0x23B872DD PUSH1 0xE0 SHL PUSH1 0x20 DUP3 ADD MSTORE PUSH1 0x1 PUSH1 0x1 PUSH1 0xA0 SHL SUB SWAP2 DUP3 AND PUSH1 0x24 DUP3 ADD DUP2 SWAP1 MSTORE ADDRESS PUSH1 0x44 DUP4 ADD MSTORE PUSH1 0x64 DUP1 DUP4 ADD DUP7 SWAP1 MSTORE DUP3 MSTORE SWAP4 SWAP5 PUSH1 0xA0 DUP3 ADD SWAP4 SWAP2 SWAP3 SWAP2 SWAP1 PUSH8 0xFFFFFFFFFFFFFFFF DUP6 GT DUP5 DUP7 LT OR PUSH2 0xA05 JUMPI PUSH2 0xF26 PUSH1 0x40 SWAP5 PUSH32 0xDCBC1C05240F31FF3AD067EF1EE35CE4997762752E3A095284754544F4C709D7 SWAP7 DUP7 MSTORE PUSH32 0x0 PUSH2 0x11BB JUMP JUMPDEST PUSH2 0xF30 DUP2 DUP4 PUSH2 0xF3F JUMP JUMPDEST DUP4 MLOAD SWAP7 DUP8 MSTORE PUSH1 0x20 DUP8 ADD MSTORE AND SWAP4 LOG3 JUMP JUMPDEST PUSH1 0x1 PUSH1 0x1 PUSH1 0xA0 SHL SUB AND SWAP1 DUP2 ISZERO PUSH2 0xF9D JUMPI PUSH32 0xDDF252AD1BE2C89B69C2B068FC378DAA952BA7F163C4A11628F55A4DF523B3EF PUSH1 0x20 DUP3 PUSH2 0xF81 PUSH1 0x0 SWAP5 PUSH1 0x2 SLOAD PUSH2 0xA1B JUMP JUMPDEST PUSH1 0x2 SSTORE DUP5 DUP5 MSTORE DUP4 DUP3 MSTORE PUSH1 0x40 DUP5 KECCAK256 DUP2 DUP2 SLOAD ADD SWAP1 SSTORE PUSH1 0x40 MLOAD SWAP1 DUP2 MSTORE LOG3 JUMP JUMPDEST PUSH1 0x40 MLOAD PUSH3 0x461BCD PUSH1 0xE5 SHL DUP2 MSTORE PUSH1 0x20 PUSH1 0x4 DUP3 ADD MSTORE PUSH1 0x1F PUSH1 0x24 DUP3 ADD MSTORE PUSH32 0x45524332303A206D696E7420746F20746865207A65726F206164647265737300 PUSH1 0x44 DUP3 ADD MSTORE PUSH1 0x64 SWAP1 REVERT JUMPDEST PUSH1 0x1 PUSH1 0x1 PUSH1 0xA0 SHL SUB DUP1 DUP5 AND SWAP6 DUP2 DUP4 AND SWAP5 SWAP1 SWAP4 SWAP3 PUSH2 0x100B SWAP2 DUP6 SWAP2 DUP3 DUP11 DUP10 SUB PUSH2 0x10A3 JUMPI JUMPDEST POP POP PUSH2 0x10B4 JUMP JUMPDEST PUSH1 0x40 MLOAD SWAP2 PUSH4 0xA9059CBB PUSH1 0xE0 SHL PUSH1 0x20 DUP5 ADD MSTORE AND SWAP4 DUP5 PUSH1 0x24 DUP4 ADD MSTORE DUP1 PUSH1 0x44 DUP4 ADD MSTORE PUSH1 0x44 DUP3 MSTORE PUSH1 0x80 DUP3 ADD SWAP3 DUP3 DUP5 LT PUSH8 0xFFFFFFFFFFFFFFFF DUP6 GT OR PUSH2 0xA05 JUMPI PUSH2 0x1096 PUSH1 0x40 SWAP4 PUSH32 0xFBDE797D201C681B91056529119E0B02407C7BB96A4A2C75C01FC9667232C8DB SWAP6 DUP6 MSTORE PUSH32 0x0 PUSH2 0x11BB JUMP JUMPDEST DUP3 MLOAD SWAP2 DUP3 MSTORE PUSH1 0x20 DUP3 ADD MSTORE LOG4 JUMP JUMPDEST PUSH2 0x10AD SWAP2 DUP4 PUSH2 0xCAE JUMP JUMPDEST CODESIZE DUP3 PUSH2 0x1004 JUMP JUMPDEST PUSH1 0x1 PUSH1 0x1 PUSH1 0xA0 SHL SUB AND DUP1 ISZERO PUSH2 0x116C JUMPI PUSH1 0x0 SWAP2 DUP2 DUP4 MSTORE DUP3 PUSH1 0x20 MSTORE PUSH1 0x40 DUP4 KECCAK256 SLOAD DUP2 DUP2 LT PUSH2 0x111C JUMPI DUP2 PUSH32 0xDDF252AD1BE2C89B69C2B068FC378DAA952BA7F163C4A11628F55A4DF523B3EF SWAP3 PUSH1 0x20 SWAP3 DUP6 DUP8 MSTORE DUP7 DUP5 MSTORE SUB PUSH1 0x40 DUP7 KECCAK256 SSTORE DUP1 PUSH1 0x2 SLOAD SUB PUSH1 0x2 SSTORE PUSH1 0x40 MLOAD SWAP1 DUP2 MSTORE LOG3 JUMP JUMPDEST PUSH1 0x40 MLOAD PUSH3 0x461BCD PUSH1 0xE5 SHL DUP2 MSTORE PUSH1 0x20 PUSH1 0x4 DUP3 ADD MSTORE PUSH1 0x22 PUSH1 0x24 DUP3 ADD MSTORE PUSH32 0x45524332303A206275726E20616D6F756E7420657863656564732062616C616E PUSH1 0x44 DUP3 ADD MSTORE PUSH2 0x6365 PUSH1 0xF0 SHL PUSH1 0x64 DUP3 ADD MSTORE PUSH1 0x84 SWAP1 REVERT JUMPDEST PUSH1 0x40 MLOAD PUSH3 0x461BCD PUSH1 0xE5 SHL DUP2 MSTORE PUSH1 0x20 PUSH1 0x4 DUP3 ADD MSTORE PUSH1 0x21 PUSH1 0x24 DUP3 ADD MSTORE PUSH32 0x45524332303A206275726E2066726F6D20746865207A65726F20616464726573 PUSH1 0x44 DUP3 ADD MSTORE PUSH1 0x73 PUSH1 0xF8 SHL PUSH1 0x64 DUP3 ADD MSTORE PUSH1 0x84 SWAP1 REVERT JUMPDEST PUSH1 0x1 DUP1 PUSH1 0xA0 SHL SUB AND SWAP1 PUSH1 0x40 MLOAD PUSH1 0x40 DUP2 ADD PUSH8 0xFFFFFFFFFFFFFFFF SWAP1 DUP3 DUP2 LT DUP3 DUP3 GT OR PUSH2 0xA05 JUMPI PUSH1 0x40 MSTORE PUSH1 0x20 SWAP4 DUP5 DUP4 MSTORE PUSH32 0x5361666545524332303A206C6F772D6C6576656C2063616C6C206661696C6564 DUP6 DUP5 ADD MSTORE PUSH1 0x0 DUP1 DUP6 DUP8 DUP3 SWAP8 MLOAD SWAP2 ADD DUP3 DUP6 GAS CALL SWAP1 RETURNDATASIZE ISZERO PUSH2 0x1300 JUMPI RETURNDATASIZE SWAP3 DUP4 GT PUSH2 0x12EC JUMPI SWAP1 PUSH2 0x1256 SWAP4 SWAP3 SWAP2 PUSH1 0x40 MLOAD SWAP3 PUSH2 0x1249 DUP9 PUSH1 0x1F NOT PUSH1 0x1F DUP5 ADD AND ADD DUP6 PUSH2 0x9E3 JUMP JUMPDEST DUP4 MSTORE RETURNDATASIZE DUP7 DUP9 DUP6 ADD RETURNDATACOPY PUSH2 0x130B JUMP JUMPDEST DUP1 MLOAD SWAP2 DUP3 ISZERO SWAP2 DUP5 DUP4 ISZERO PUSH2 0x12C8 JUMPI JUMPDEST POP POP POP SWAP1 POP ISZERO PUSH2 0x1271 JUMPI POP JUMP JUMPDEST PUSH1 0x84 SWAP1 PUSH1 0x40 MLOAD SWAP1 PUSH3 0x461BCD PUSH1 0xE5 SHL DUP3 MSTORE PUSH1 0x4 DUP3 ADD MSTORE PUSH1 0x2A PUSH1 0x24 DUP3 ADD MSTORE PUSH32 0x5361666545524332303A204552433230206F7065726174696F6E20646964206E PUSH1 0x44 DUP3 ADD MSTORE PUSH10 0x1BDD081CDD58D8D95959 PUSH1 0xB2 SHL PUSH1 0x64 DUP3 ADD MSTORE REVERT JUMPDEST SWAP2 SWAP4 DUP2 DUP1 SWAP5 POP ADD SUB SLT PUSH2 0x1B0 JUMPI DUP3 ADD MLOAD SWAP1 DUP2 ISZERO ISZERO DUP3 SUB PUSH2 0x2C6 JUMPI POP DUP1 CODESIZE DUP1 DUP5 PUSH2 0x1264 JUMP JUMPDEST PUSH4 0x4E487B71 PUSH1 0xE0 SHL DUP6 MSTORE PUSH1 0x41 PUSH1 0x4 MSTORE PUSH1 0x24 DUP6 REVERT JUMPDEST SWAP1 PUSH2 0x1256 SWAP4 SWAP3 POP PUSH1 0x60 SWAP2 JUMPDEST SWAP2 SWAP3 SWAP1 ISZERO PUSH2 0x136D JUMPI POP DUP2 MLOAD ISZERO PUSH2 0x131F JUMPI POP SWAP1 JUMP JUMPDEST EXTCODESIZE ISZERO PUSH2 0x1328 JUMPI SWAP1 JUMP JUMPDEST PUSH1 0x40 MLOAD PUSH3 0x461BCD PUSH1 0xE5 SHL DUP2 MSTORE PUSH1 0x20 PUSH1 0x4 DUP3 ADD MSTORE PUSH1 0x1D PUSH1 0x24 DUP3 ADD MSTORE PUSH32 0x416464726573733A2063616C6C20746F206E6F6E2D636F6E7472616374000000 PUSH1 0x44 DUP3 ADD MSTORE PUSH1 0x64 SWAP1 REVERT JUMPDEST DUP3 MLOAD SWAP1 SWAP2 POP ISZERO PUSH2 0x1380 JUMPI POP DUP1 MLOAD SWAP1 PUSH1 0x20 ADD REVERT JUMPDEST PUSH1 0x40 MLOAD PUSH3 0x461BCD PUSH1 0xE5 SHL DUP2 MSTORE SWAP1 DUP2 SWAP1 PUSH2 0x139C SWAP1 PUSH1 0x4 DUP4 ADD PUSH2 0x8CA JUMP JUMPDEST SUB SWAP1 REVERT JUMPDEST SWAP2 SWAP1 PUSH2 0x13AD DUP3 DUP3 DUP6 PUSH2 0x13E0 JUMP JUMPDEST SWAP3 DUP3 ISZERO PUSH2 0x13CA JUMPI MULMOD PUSH2 0x13BC JUMPI SWAP1 JUMP JUMPDEST PUSH1 0x1 DUP2 ADD DUP1 SWAP2 GT PUSH2 0xA28 JUMPI SWAP1 JUMP JUMPDEST PUSH4 0x4E487B71 PUSH1 0xE0 SHL PUSH1 0x0 MSTORE PUSH1 0x12 PUSH1 0x4 MSTORE PUSH1 0x24 PUSH1 0x0 REVERT JUMPDEST SWAP2 PUSH1 0x0 NOT DUP3 DUP5 MULMOD SWAP3 DUP3 DUP2 MUL SWAP3 DUP4 DUP1 DUP7 LT SWAP6 SUB SWAP5 DUP1 DUP7 SUB SWAP6 EQ PUSH2 0x1493 JUMPI DUP5 DUP4 GT ISZERO PUSH2 0x1456 JUMPI DUP3 SWAP2 MULMOD PUSH1 0x1 DUP3 NOT ADD DUP3 AND DUP1 SWAP3 DIV PUSH1 0x2 DUP1 DUP3 PUSH1 0x3 MUL XOR DUP1 DUP4 MUL DUP3 SUB MUL DUP1 DUP4 MUL DUP3 SUB MUL DUP1 DUP4 MUL DUP3 SUB MUL DUP1 DUP4 MUL DUP3 SUB MUL DUP1 DUP4 MUL DUP3 SUB MUL DUP1 SWAP3 MUL SWAP1 SUB MUL SWAP4 PUSH1 0x1 DUP4 DUP1 PUSH1 0x0 SUB DIV ADD SWAP1 DUP5 DUP4 GT SWAP1 SUB MUL SWAP3 SUB DIV OR MUL SWAP1 JUMP JUMPDEST PUSH1 0x40 MLOAD PUSH3 0x461BCD PUSH1 0xE5 SHL DUP2 MSTORE PUSH1 0x20 PUSH1 0x4 DUP3 ADD MSTORE PUSH1 0x15 PUSH1 0x24 DUP3 ADD MSTORE PUSH21 0x4D6174683A206D756C446976206F766572666C6F77 PUSH1 0x58 SHL PUSH1 0x44 DUP3 ADD MSTORE PUSH1 0x64 SWAP1 REVERT JUMPDEST POP POP DUP1 SWAP3 POP ISZERO PUSH2 0x13CA JUMPI DIV SWAP1 JUMP INVALID LOG2 PUSH5 0x6970667358 0x22 SLT KECCAK256 0xD4 SWAP1 0xD8 SHR 0xE6 0x4C GASLIMIT SSTORE LOG2 PUSH4 0x716A71BB GAS JUMPDEST 0xCA GT 0xED 0xC3 PUSH21 0xB29A2B427C156FAB035E5364736F6C634300081400 CALLER "},"methodIdentifiers":{"allowance(address,address)":"dd62ed3e","approve(address,uint256)":"095ea7b3","asset()":"38d52e0f","balanceOf(address)":"70a08231","burn(uint256)":"42966c68","convertToAssets(uint256)":"07a2d13a","convertToShares(uint256)":"c6e6f592","decimals()":"313ce567","decreaseAllowance(address,uint256)":"a457c2d7","deposit(uint256,address)":"6e553f65","increaseAllowance(address,uint256)":"39509351","maxDeposit(address)":"402d267d","maxMint(address)":"c63d75b6","maxRedeem(address)":"d905777e","maxWithdraw(address)":"ce96cb77","mint(address,uint256)":"40c10f19","mint(uint256,address)":"94bf804d","name()":"06fdde03","previewDeposit(uint256)":"ef8b30f7","previewMint(uint256)":"b3d7f6b9","previewRedeem(uint256)":"4cdad506","previewWithdraw(uint256)":"0a28a477","redeem(uint256,address,address)":"ba087652","symbol()":"95d89b41","totalAssets()":"01e1d114","totalSupply()":"18160ddd","transfer(address,uint256)":"a9059cbb","transferFrom(address,address,uint256)":"23b872dd","withdraw(uint256,address,address)":"b460af94"}}}}}