{
  "_format": "hh-sol-artifact-1",
  "contractName": "TokenA",
  "sourceName": "contracts/TokenA.sol",
  "abi": [
    {
      "inputs": [
        {
          "internalType": "contract IERC20",
          "name": "_asset",
          "type": "address"
        }
      ],
      "stateMutability": "nonpayable",
      "type": "constructor"
    },
    {
      "anonymous": false,
      "inputs": [
        {
          "indexed": true,
          "internalType": "address",
          "name": "owner",
          "type": "address"
        },
        {
          "indexed": true,
          "internalType": "address",
          "name": "spender",
          "type": "address"
        },
        {
          "indexed": false,
          "internalType": "uint256",
          "name": "value",
          "type": "uint256"
        }
      ],
      "name": "Approval",
      "type": "event"
    },
    {
      "anonymous": false,
      "inputs": [
        {
          "indexed": true,
          "internalType": "address",
          "name": "sender",
          "type": "address"
        },
        {
          "indexed": true,
          "internalType": "address",
          "name": "owner",
          "type": "address"
        },
        {
          "indexed": false,
          "internalType": "uint256",
          "name": "assets",
          "type": "uint256"
        },
        {
          "indexed": false,
          "internalType": "uint256",
          "name": "shares",
          "type": "uint256"
        }
      ],
      "name": "Deposit",
      "type": "event"
    },
    {
      "anonymous": false,
      "inputs": [
        {
          "indexed": true,
          "internalType": "address",
          "name": "from",
          "type": "address"
        },
        {
          "indexed": true,
          "internalType": "address",
          "name": "to",
          "type": "address"
        },
        {
          "indexed": false,
          "internalType": "uint256",
          "name": "value",
          "type": "uint256"
        }
      ],
      "name": "Transfer",
      "type": "event"
    },
    {
      "anonymous": false,
      "inputs": [
        {
          "indexed": true,
          "internalType": "address",
          "name": "sender",
          "type": "address"
        },
        {
          "indexed": true,
          "internalType": "address",
          "name": "receiver",
          "type": "address"
        },
        {
          "indexed": true,
          "internalType": "address",
          "name": "owner",
          "type": "address"
        },
        {
          "indexed": false,
          "internalType": "uint256",
          "name": "assets",
          "type": "uint256"
        },
        {
          "indexed": false,
          "internalType": "uint256",
          "name": "shares",
          "type": "uint256"
        }
      ],
      "name": "Withdraw",
      "type": "event"
    },
    {
      "inputs": [
        {
          "internalType": "address",
          "name": "owner",
          "type": "address"
        },
        {
          "internalType": "address",
          "name": "spender",
          "type": "address"
        }
      ],
      "name": "allowance",
      "outputs": [
        {
          "internalType": "uint256",
          "name": "",
          "type": "uint256"
        }
      ],
      "stateMutability": "view",
      "type": "function"
    },
    {
      "inputs": [
        {
          "internalType": "address",
          "name": "spender",
          "type": "address"
        },
        {
          "internalType": "uint256",
          "name": "amount",
          "type": "uint256"
        }
      ],
      "name": "approve",
      "outputs": [
        {
          "internalType": "bool",
          "name": "",
          "type": "bool"
        }
      ],
      "stateMutability": "nonpayable",
      "type": "function"
    },
    {
      "inputs": [],
      "name": "asset",
      "outputs": [
        {
          "internalType": "address",
          "name": "",
          "type": "address"
        }
      ],
      "stateMutability": "view",
      "type": "function"
    },
    {
      "inputs": [
        {
          "internalType": "address",
          "name": "account",
          "type": "address"
        }
      ],
      "name": "balanceOf",
      "outputs": [
        {
          "internalType": "uint256",
          "name": "",
          "type": "uint256"
        }
      ],
      "stateMutability": "view",
      "type": "function"
    },
    {
      "inputs": [
        {
          "internalType": "uint256",
          "name": "amount",
          "type": "uint256"
        }
      ],
      "name": "burn",
      "outputs": [],
      "stateMutability": "nonpayable",
      "type": "function"
    },
    {
      "inputs": [
        {
          "internalType": "uint256",
          "name": "shares",
          "type": "uint256"
        }
      ],
      "name": "convertToAssets",
      "outputs": [
        {
          "internalType": "uint256",
          "name": "",
          "type": "uint256"
        }
      ],
      "stateMutability": "view",
      "type": "function"
    },
    {
      "inputs": [
        {
          "internalType": "uint256",
          "name": "assets",
          "type": "uint256"
        }
      ],
      "name": "convertToShares",
      "outputs": [
        {
          "internalType": "uint256",
          "name": "",
          "type": "uint256"
        }
      ],
      "stateMutability": "view",
      "type": "function"
    },
    {
      "inputs": [],
      "name": "decimals",
      "outputs": [
        {
          "internalType": "uint8",
          "name": "",
          "type": "uint8"
        }
      ],
      "stateMutability": "view",
      "type": "function"
    },
    {
      "inputs": [
        {
          "internalType": "address",
          "name": "spender",
          "type": "address"
        },
        {
          "internalType": "uint256",
          "name": "subtractedValue",
          "type": "uint256"
        }
      ],
      "name": "decreaseAllowance",
      "outputs": [
        {
          "internalType": "bool",
          "name": "",
          "type": "bool"
        }
      ],
      "stateMutability": "nonpayable",
      "type": "function"
    },
    {
      "inputs": [
        {
          "internalType": "uint256",
          "name": "assets",
          "type": "uint256"
        },
        {
          "internalType": "address",
          "name": "receiver",
          "type": "address"
        }
      ],
      "name": "deposit",
      "outputs": [
        {
          "internalType": "uint256",
          "name": "",
          "type": "uint256"
        }
      ],
      "stateMutability": "nonpayable",
      "type": "function"
    },
    {
      "inputs": [
        {
          "internalType": "address",
          "name": "spender",
          "type": "address"
        },
        {
          "internalType": "uint256",
          "name": "addedValue",
          "type": "uint256"
        }
      ],
      "name": "increaseAllowance",
      "outputs": [
        {
          "internalType": "bool",
          "name": "",
          "type": "bool"
        }
      ],
      "stateMutability": "nonpayable",
      "type": "function"
    },
    {
      "inputs": [
        {
          "internalType": "address",
          "name": "",
          "type": "address"
        }
      ],
      "name": "maxDeposit",
      "outputs": [
        {
          "internalType": "uint256",
          "name": "",
          "type": "uint256"
        }
      ],
      "stateMutability": "view",
      "type": "function"
    },
    {
      "inputs": [
        {
          "internalType": "address",
          "name": "",
          "type": "address"
        }
      ],
      "name": "maxMint",
      "outputs": [
        {
          "internalType": "uint256",
          "name": "",
          "type": "uint256"
        }
      ],
      "stateMutability": "view",
      "type": "function"
    },
    {
      "inputs": [
        {
          "internalType": "address",
          "name": "owner",
          "type": "address"
        }
      ],
      "name": "maxRedeem",
      "outputs": [
        {
          "internalType": "uint256",
          "name": "",
          "type": "uint256"
        }
      ],
      "stateMutability": "view",
      "type": "function"
    },
    {
      "inputs": [
        {
          "internalType": "address",
          "name": "owner",
          "type": "address"
        }
      ],
      "name": "maxWithdraw",
      "outputs": [
        {
          "internalType": "uint256",
          "name": "",
          "type": "uint256"
        }
      ],
      "stateMutability": "view",
      "type": "function"
    },
    {
      "inputs": [
        {
          "internalType": "address",
          "name": "to",
          "type": "address"
        },
        {
          "internalType": "uint256",
          "name": "amount",
          "type": "uint256"
        }
      ],
      "name": "mint",
      "outputs": [],
      "stateMutability": "nonpayable",
      "type": "function"
    },
    {
      "inputs": [
        {
          "internalType": "uint256",
          "name": "shares",
          "type": "uint256"
        },
        {
          "internalType": "address",
          "name": "receiver",
          "type": "address"
        }
      ],
      "name": "mint",
      "outputs": [
        {
          "internalType": "uint256",
          "name": "",
          "type": "uint256"
        }
      ],
      "stateMutability": "nonpayable",
      "type": "function"
    },
    {
      "inputs": [],
      "name": "name",
      "outputs": [
        {
          "internalType": "string",
          "name": "",
          "type": "string"
        }
      ],
      "stateMutability": "view",
      "type": "function"
    },
    {
      "inputs": [
        {
          "internalType": "uint256",
          "name": "assets",
          "type": "uint256"
        }
      ],
      "name": "previewDeposit",
      "outputs": [
        {
          "internalType": "uint256",
          "name": "",
          "type": "uint256"
        }
      ],
      "stateMutability": "view",
      "type": "function"
    },
    {
      "inputs": [
        {
          "internalType": "uint256",
          "name": "shares",
          "type": "uint256"
        }
      ],
      "name": "previewMint",
      "outputs": [
        {
          "internalType": "uint256",
          "name": "",
          "type": "uint256"
        }
      ],
      "stateMutability": "view",
      "type": "function"
    },
    {
      "inputs": [
        {
          "internalType": "uint256",
          "name": "shares",
          "type": "uint256"
        }
      ],
      "name": "previewRedeem",
      "outputs": [
        {
          "internalType": "uint256",
          "name": "",
          "type": "uint256"
        }
      ],
      "stateMutability": "view",
      "type": "function"
    },
    {
      "inputs": [
        {
          "internalType": "uint256",
          "name": "assets",
          "type": "uint256"
        }
      ],
      "name": "previewWithdraw",
      "outputs": [
        {
          "internalType": "uint256",
          "name": "",
          "type": "uint256"
        }
      ],
      "stateMutability": "view",
      "type": "function"
    },
    {
      "inputs": [
        {
          "internalType": "uint256",
          "name": "shares",
          "type": "uint256"
        },
        {
          "internalType": "address",
          "name": "receiver",
          "type": "address"
        },
        {
          "internalType": "address",
          "name": "owner",
          "type": "address"
        }
      ],
      "name": "redeem",
      "outputs": [
        {
          "internalType": "uint256",
          "name": "",
          "type": "uint256"
        }
      ],
      "stateMutability": "nonpayable",
      "type": "function"
    },
    {
      "inputs": [],
      "name": "symbol",
      "outputs": [
        {
          "internalType": "string",
          "name": "",
          "type": "string"
        }
      ],
      "stateMutability": "view",
      "type": "function"
    },
    {
      "inputs": [],
      "name": "totalAssets",
      "outputs": [
        {
          "internalType": "uint256",
          "name": "",
          "type": "uint256"
        }
      ],
      "stateMutability": "view",
      "type": "function"
    },
    {
      "inputs": [],
      "name": "totalSupply",
      "outputs": [
        {
          "internalType": "uint256",
          "name": "",
          "type": "uint256"
        }
      ],
      "stateMutability": "view",
      "type": "function"
    },
    {
      "inputs": [
        {
          "internalType": "address",
          "name": "to",
          "type": "address"
        },
        {
          "internalType": "uint256",
          "name": "amount",
          "type": "uint256"
        }
      ],
      "name": "transfer",
      "outputs": [
        {
          "internalType": "bool",
          "name": "",
          "type": "bool"
        }
      ],
      "stateMutability": "nonpayable",
      "type": "function"
    },
    {
      "inputs": [
        {
          "internalType": "address",
          "name": "from",
          "type": "address"
        },
        {
          "internalType": "address",
          "name": "to",
          "type": "address"
        },
        {
          "internalType": "uint256",
          "name": "amount",
          "type": "uint256"
        }
      ],
      "name": "transferFrom",
      "outputs": [
        {
          "internalType": "bool",
          "name": "",
          "type": "bool"
        }
      ],
      "stateMutability": "nonpayable",
      "type": "function"
    },
    {
      "inputs": [
        {
          "internalType": "uint256",
          "name": "assets",
          "type": "uint256"
        },
        {
          "internalType": "address",
          "name": "receiver",
          "type": "address"
        },
        {
          "internalType": "address",
          "name": "owner",
          "type": "address"
        }
      ],
      "name": "withdraw",
      "outputs": [
        {
          "internalType": "uint256",
          "name": "",
          "type": "uint256"
        }
      ],
      "stateMutability": "nonpayable",
      "type": "function"
    }
  ],
  "bytecode": "0x60c08060405234620003895780620019828038038091620000218285620003aa565b8339602092839181010312620003895751906001600160a01b0382168203620003895760405162000052816200038e565b600c81526b26bcab30bab63a2a37b5b2b760a11b8282015260405162000078816200038e565b60038082526213559560ea1b8483015282516001600160401b039283821162000289578254916001958684811c941680156200037e575b8885101462000368578190601f9485811162000312575b508890858311600114620002ab576000926200029f575b505060001982861b1c191690861b1783555b8051938411620002895760049586548681811c911680156200027e575b8282101462000269578381116200021e575b5080928511600114620001b05750938394918492600095620001a4575b50501b92600019911b1c19161790555b6200015681620003ce565b90156200019b575b60a0526080526040516114d79081620004ab823960805181818161068e01528181610d6101528181610f020152611072015260a051816106d30152f35b5060126200015e565b0151935038806200013b565b92919084601f1981168860005285600020956000905b89838310620002035750505010620001e8575b50505050811b0190556200014b565b01519060f884600019921b161c1916905538808080620001d9565b858701518955909701969485019488935090810190620001c6565b87600052816000208480880160051c8201928489106200025f575b0160051c019087905b828110620002525750506200011e565b6000815501879062000242565b9250819262000239565b602288634e487b7160e01b6000525260246000fd5b90607f16906200010c565b634e487b7160e01b600052604160045260246000fd5b015190503880620000dd565b90889350601f19831691876000528a6000209260005b8c828210620002fb5750508411620002e2575b505050811b018355620000ef565b015160001983881b60f8161c19169055388080620002d4565b8385015186558c97909501949384019301620002c1565b90915085600052886000208580850160051c8201928b86106200035e575b918a91869594930160051c01915b8281106200034e575050620000c6565b600081558594508a91016200033e565b9250819262000330565b634e487b7160e01b600052602260045260246000fd5b93607f1693620000af565b600080fd5b604081019081106001600160401b038211176200028957604052565b601f909101601f19168101906001600160401b038211908210176200028957604052565b906040516020908181019063313ce56760e01b825260048152620003f2816200038e565b5160009485928392916001600160a01b03165afa3d15620004a1573d906001600160401b0382116200048d576040519162000437601f8201601f1916850184620003aa565b82523d858484013e5b8062000481575b62000453575b50508190565b81818051810103126200047d57015160ff8111156200047357806200044d565b6001925060ff1690565b8380fd5b50818151101562000447565b634e487b7160e01b85526041600452602485fd5b6060906200044056fe6040608081526004908136101561001557600080fd5b600090813560e01c92836301e1d114146108ae57836306fdde03146107bb57836307a2d13a146105e1578363095ea7b3146107925783630a28a4771461077357836318160ddd1461075557836323b872dd14610719578363313ce567146106bd57836338d52e0f1461067a578363395093511461062b578363402d267d1461022c57836340c10f191461060757836342966c68146105e65783634cdad506146105e15783636e553f65146105ae57836370a082311461058e57836394bf804d1461055757836395d89b4114610454578363a457c2d7146103b1578363a9059cbb14610381578363b3d7f6b914610362578363b460af94146102c9578363ba0876521461023157508263c63d75b61461022c578263c6e6f59214610164578263ce96cb77146101f5578263d905777e146101b4578263dd62ed3e1461016957505063ef8b30f71461016457600080fd5b6109c5565b346101b057806003193601126101b0578060209261018561093e565b61018d610954565b6001600160a01b0391821683526001865283832091168252845220549051908152f35b5080fd5b346101b05760203660031901126101b0576020906101ee6101d361093e565b6001600160a01b031660009081526020819052604090205490565b9051908152f35b346101b05760203660031901126101b0576020916101ee9082906001600160a01b0361021f61093e565b1681528085522054610e5b565b61096a565b82346102c657829061024236610990565b6001600160a01b03811684526020849052939092205492939092831161028357508161027d9161027460209694610e5b565b94859133610fe2565b51908152f35b606490602086519162461bcd60e51b8352820152601d60248201527f455243343632363a2072656465656d206d6f7265207468616e206d61780000006044820152fd5b80fd5b8290346101b05790826102fe926102df36610990565b6001600160a01b03811686526020869052939094205492949092610e5b565b821161031f5750602093918161031661027d93610dd7565b94859233610fe2565b606490602086519162461bcd60e51b8352820152601f60248201527f455243343632363a207769746864726177206d6f7265207468616e206d6178006044820152fd5b91346102c65760203660031901126102c657506101ee60209235610e30565b50346101b057806003193601126101b0576020906103aa6103a061093e565b6024359033610a3e565b5160018152f35b82346102c657826003193601126102c6576103ca61093e565b918360243592338152600160205281812060018060a01b0386168252602052205490828210610403576020856103aa8585038733610bac565b608490602086519162461bcd60e51b8352820152602560248201527f45524332303a2064656372656173656420616c6c6f77616e63652062656c6f77604482015264207a65726f60d81b6064820152fd5b9250346101b057816003193601126101b057805191809380549160019083821c9282851694851561054d575b602095868610811461053a5785895290811561051657506001146104be575b6104ba87876104b0828c03836109e3565b51918291826108ca565b0390f35b81529295507f8a35acfbc15ff81a39ae7d344fd709f28e8600b4aa8c65c6b64bfe7fe36bd19b5b82841061050357505050826104ba946104b09282010194388061049f565b80548685018801529286019281016104e5565b60ff19168887015250505050151560051b83010192506104b0826104ba388061049f565b634e487b7160e01b845260228352602484fd5b93607f1693610480565b3461058a578160031936011261058a5760209250359061027d610578610954565b9261058281610e30565b809433610e86565b8280fd5b50346101b05760203660031901126101b0576020906101ee6101d361093e565b3461058a578160031936011261058a5760209250359061027d6105cf610954565b6105d884610e05565b93849133610e86565b610913565b9050346101b05760203660031901126101b0576106049035336110b4565b80f35b50346101b0573660031901126102c65761060461062261093e565b60243590610f3f565b50346101b057806003193601126101b0576103aa60209261067361064d61093e565b338352600186528483206001600160a01b03821684528652918490205460243590610a1b565b9033610bac565b50346101b057816003193601126101b057517f00000000000000000000000000000000000000000000000000000000000000006001600160a01b03168152602090f35b9250346101b057816003193601126101b05760ff7f0000000000000000000000000000000000000000000000000000000000000000169160ff8311610706576020838351908152f35b634e487b7160e01b815260118452602490fd5b50346101b05760603660031901126101b0576020906103aa61073961093e565b610741610954565b60443591610750833383610cae565b610a3e565b50346101b057816003193601126101b0576020906002549051908152f35b91346102c65760203660031901126102c657506101ee60209235610dd7565b50346101b057806003193601126101b0576020906103aa6107b161093e565b6024359033610bac565b903461058a578260031936011261058a57805191836003549060019082821c9282811680156108a4575b6020958686108214610891575084885290811561086f5750600114610816575b6104ba86866104b0828b03836109e3565b929550600383527fc2575a0e9e593c00f959f8c92f12db2869c3395a3b0502d05e2516446f71f85b5b82841061085c57505050826104ba946104b0928201019486610805565b805486850188015292860192810161083f565b60ff191687860152505050151560051b83010192506104b0826104ba86610805565b634e487b7160e01b845260229052602483fd5b93607f16936107e5565b50346101b057816003193601126101b0576020906101ee610d46565b6020808252825181830181905290939260005b8281106108ff57505060409293506000838284010152601f8019910116010190565b8181018601518482016040015285016108dd565b34610939576020366003190112610939576020610931600435610e5b565b604051908152f35b600080fd5b600435906001600160a01b038216820361093957565b602435906001600160a01b038216820361093957565b346109395760203660031901126109395761098361093e565b5060206040516000198152f35b606090600319011261093957600435906001600160a01b03906024358281168103610939579160443590811681036109395790565b34610939576020366003190112610939576020610931600435610e05565b90601f8019910116810190811067ffffffffffffffff821117610a0557604052565b634e487b7160e01b600052604160045260246000fd5b91908201809211610a2857565b634e487b7160e01b600052601160045260246000fd5b6001600160a01b03908116918215610b595716918215610b0857600082815280602052604081205491808310610ab457604082827fddf252ad1be2c89b69c2b068fc378daa952ba7f163c4a11628f55a4df523b3ef958760209652828652038282205586815220818154019055604051908152a3565b60405162461bcd60e51b815260206004820152602660248201527f45524332303a207472616e7366657220616d6f756e7420657863656564732062604482015265616c616e636560d01b6064820152608490fd5b60405162461bcd60e51b815260206004820152602360248201527f45524332303a207472616e7366657220746f20746865207a65726f206164647260448201526265737360e81b6064820152608490fd5b60405162461bcd60e51b815260206004820152602560248201527f45524332303a207472616e736665722066726f6d20746865207a65726f206164604482015264647265737360d81b6064820152608490fd5b6001600160a01b03908116918215610c5d5716918215610c0d5760207f8c5be1e5ebec7d5bd14f71427d1e84f3dd0314c0f7b2291e5b200ac8c7c3b925918360005260018252604060002085600052825280604060002055604051908152a3565b60405162461bcd60e51b815260206004820152602260248201527f45524332303a20617070726f766520746f20746865207a65726f206164647265604482015261737360f01b6064820152608490fd5b60405162461bcd60e51b8152602060048201526024808201527f45524332303a20617070726f76652066726f6d20746865207a65726f206164646044820152637265737360e01b6064820152608490fd5b9060018060a01b0380831660005260016020526040600020908216600052602052604060002054926000198403610ce6575b50505050565b808410610d0157610cf8930391610bac565b38808080610ce0565b60405162461bcd60e51b815260206004820152601d60248201527f45524332303a20696e73756666696369656e7420616c6c6f77616e63650000006044820152606490fd5b6040516370a0823160e01b81523060048201526020816024817f00000000000000000000000000000000000000000000000000000000000000006001600160a01b03165afa908115610dcb57600091610d9d575090565b906020823d8211610dc3575b81610db6602093836109e3565b810103126102c657505190565b3d9150610da9565b6040513d6000823e3d90fd5b60025460018101809111610a2857610ded610d46565b9060018201809211610a2857610e02926113a0565b90565b60025460018101809111610a2857610e1b610d46565b9060018201809211610a2857610e02926113e0565b610e38610d46565b60018101809111610a28576002549060018201809211610a2857610e02926113a0565b610e63610d46565b60018101809111610a28576002549060018201809211610a2857610e02926113e0565b6040516323b872dd60e01b60208201526001600160a01b039182166024820181905230604483015260648083018690528252939460a08201939192919067ffffffffffffffff851184861017610a0557610f266040947fdcbc1c05240f31ff3ad067ef1ee35ce4997762752e3a095284754544f4c709d79686527f00000000000000000000000000000000000000000000000000000000000000006111bb565b610f308183610f3f565b835196875260208701521693a3565b6001600160a01b0316908115610f9d577fddf252ad1be2c89b69c2b068fc378daa952ba7f163c4a11628f55a4df523b3ef602082610f81600094600254610a1b565b60025584845283825260408420818154019055604051908152a3565b60405162461bcd60e51b815260206004820152601f60248201527f45524332303a206d696e7420746f20746865207a65726f2061646472657373006044820152606490fd5b6001600160a01b03808416958183169490939261100b918591828a89036110a3575b50506110b4565b6040519163a9059cbb60e01b6020840152169384602483015280604483015260448252608082019282841067ffffffffffffffff851117610a05576110966040937ffbde797d201c681b91056529119e0b02407c7bb96a4a2c75c01fc9667232c8db9585527f00000000000000000000000000000000000000000000000000000000000000006111bb565b82519182526020820152a4565b6110ad9183610cae565b3882611004565b6001600160a01b0316801561116c5760009181835282602052604083205481811061111c57817fddf252ad1be2c89b69c2b068fc378daa952ba7f163c4a11628f55a4df523b3ef926020928587528684520360408620558060025403600255604051908152a3565b60405162461bcd60e51b815260206004820152602260248201527f45524332303a206275726e20616d6f756e7420657863656564732062616c616e604482015261636560f01b6064820152608490fd5b60405162461bcd60e51b815260206004820152602160248201527f45524332303a206275726e2066726f6d20746865207a65726f206164647265736044820152607360f81b6064820152608490fd5b60018060a01b0316906040516040810167ffffffffffffffff9082811082821117610a05576040526020938483527f5361666545524332303a206c6f772d6c6576656c2063616c6c206661696c6564858401526000808587829751910182855af1903d15611300573d9283116112ec57906112569392916040519261124988601f19601f84011601856109e3565b83523d868885013e61130b565b8051918215918483156112c8575b5050509050156112715750565b6084906040519062461bcd60e51b82526004820152602a60248201527f5361666545524332303a204552433230206f7065726174696f6e20646964206e6044820152691bdd081cdd58d8d9595960b21b6064820152fd5b9193818094500103126101b0578201519081151582036102c6575080388084611264565b634e487b7160e01b85526041600452602485fd5b906112569392506060915b9192901561136d575081511561131f575090565b3b156113285790565b60405162461bcd60e51b815260206004820152601d60248201527f416464726573733a2063616c6c20746f206e6f6e2d636f6e74726163740000006044820152606490fd5b8251909150156113805750805190602001fd5b60405162461bcd60e51b815290819061139c90600483016108ca565b0390fd5b91906113ad8282856113e0565b9282156113ca57096113bc5790565b60018101809111610a285790565b634e487b7160e01b600052601260045260246000fd5b9160001982840992828102928380861095039480860395146114935784831115611456578291096001821901821680920460028082600302188083028203028083028203028083028203028083028203028083028203028092029003029360018380600003040190848311900302920304170290565b60405162461bcd60e51b81526020600482015260156024820152744d6174683a206d756c446976206f766572666c6f7760581b6044820152606490fd5b5050809250156113ca57049056fea2646970667358221220d490d81ce64c4555a263716a71bb5a5bca11edc374b29a2b427c156fab035e5364736f6c63430008140033",
  "linkReferences": {},
  "deployedLinkReferences": {}
}